:020000040800F2
:10000000000002206D230008E7220008E922000812
:10001000EB220008ED220008EF220008000000009B
:10002000000000000000000000000000F1220008B5
:10003000F322000800000000F5220008F722000863
:10004000BD230008BD230008BD230008BD23000810
:10005000BD230008BD2300088D070008970700088E
:10006000A1070008AB070008BD230008BD23000856
:10007000BD230008BD230008BD230008BD230008E0
:1000800001230008BD230008ED080008BD23000877
:10009000BD230008BD230008BD230008BD230008C0
:1000A000BD230008BD230008BD230008BD230008B0
:1000B000BD230008BD230008BD230008BD230008A0
:1000C000BD230008BD230008BD230008BD23000890
:1000D000BD230008DD080008BD230008BD2300087B
:1000E000BD230008BD230008BD230008BD23000870
:1000F000BD230008BD230008BD230008BD23000860
:10010000BD230008BD230008BD230008BD2300084F
:10011000BD230008BD230008BD230008BD2300083F
:10012000BD230008BD230008BD230008BD2300082F
:10013000BD2300080000000000000000BD230008EF
:10014000BD230008BD230008BD230008BD2300080F
:10015000BD230008BD230008BD230008BD230008FF
:10016000BD230008BD230008BD230008BD230008EF
:10017000BD230008BD230008BD23000800000000C7
:1001800000000000BD230008000000000000000087
:10019000BD2300080000000000000000BD2300088F
:1001A000000000000000000000000000BD23000867
:1001B000BD230008BD230008BD230008BD2300089F
:0401C000BD23000853
:1001D00010F8012B11F8013B012A28BF9A42F7D0F1
:1001E000D01A7047034613F8012B002AFBD1181AC6
:1001F000013870470000000000000000000000000F
:1002000001F0FF01102A2BDB10F0070F08D010F8C7
:10021000013B013A8B422DD010F0070F42B3F6D1CB
:10022000F0B441EA012141EA014122F007047FF0E4
:1002300000070023F0E80256083C85EA010586EA3B
:10024000010685FA47F5A3FA87F586FA47F6A5FA77
:1002500087F68EB9EED1F0BC01F0FF0102F0070283
:1002600032B110F8013B013A83EA010313B1F8D12E
:100270000020704701387047002D06BF354603380F
:10028000073815F0010F07D1013015F4807F02BF48
:10029000013015F4C03F0130F0BC0138704700BF99
:1002A00053B94AB9002908BF00281CBF4FF0FF31DD
:1002B0004FF0FF3000F00CB8ADF1080C6DE904CE42
:1002C00003F0E8F9DDF804E0DDE9022304B070474B
:1002D000704700BF10B5054C237833B9044B13B1F8
:1002E0000448AFF300800123237010BD5C000020A0
:1002F000000000008C39000808B5034B1BB103490E
:100300000348AFF3008008BD00000000600000203B
:100310008C39000882B000EB40000023019304E018
:1003200000BF00BF019B01330193019B8342F7D3C0
:1003300002B0704710B51420FFF7ECFF094CA36919
:1003400043F40043A3611420FFF7E4FFA36943F0E3
:100350000043A3611420FFF7DDFFA36943F40043CA
:10036000A36110BD0008024010B504463D4A9369E0
:1003700043F48043936110F0800F41D13A4A93696E
:1003800043F00043936114F0400F40D0364A936924
:1003900043F48053936114F0200F3ED0334A9369A5
:1003A00043F40073936114F0100F3CD02F4A93690B
:1003B00043F480739361FFF7BDFF14F0080F38D04A
:1003C000294A936943F40043936114F0040F36D033
:1003D000254A936943F48053936114F0020F34D09B
:1003E000224A936943F40073936114F0010F32D0F1
:1003F0001E4A936943F480739361FFF79BFF10BD1E
:10040000A2F50062936943F400439361BBE7164A87
:10041000936943F080539361BDE7144A936943F0B5
:1004200000739361BFE7114A936943F0807393614E
:10043000C1E70D4A936943F000439361C5E70A4A57
:10044000936943F080539361C7E7084A936943F087
:1004500000739361C9E7054A936943F08073936120
:10046000CBE700BF00080240000002400004024049
:1004700038B50546002403E0FFF776FF0134E4B207
:10048000285D0028F8D138BD10B504463F4A93696D
:1004900043F08043936110F0800F45D13C4A93694B
:1004A00043F00043936114F0400F44D0384A9369FD
:1004B00043F48053936114F0200F42D0354A93697E
:1004C00043F40073936114F0100F40D0314A9369E4
:1004D00043F480739361FFF72DFF14F0080F3CD0B5
:1004E0002B4A936943F40043936114F0040F3AD00C
:1004F000274A936943F48053936114F0020F38D074
:10050000244A936943F40073936114F0010F36D0C9
:10051000204A936943F480739361FFF70BFF40F621
:10052000B830FFF7F7FE10BDA2F50062936943F4FF
:1005300000439361B7E7164A936943F08053936190
:10054000B9E7144A936943F000739361BBE7114A1A
:10055000936943F080739361BDE70D4A936943F05B
:1005600000439361C1E70A4A936943F08053936162
:10057000C3E7084A936943F000739361C5E7054AEE
:10058000936943F080739361C7E700BF000802409E
:10059000000002400004024008B5194B1A6B42F0FB
:1005A00001021A631A6B42F002021A631A6B42F0DC
:1005B00004021A63134A136843F08243136002F57E
:1005C0008062136843F4A023136002F5806213680D
:1005D00043F0A043136047F23050FFF79BFE3320F7
:1005E000FFF752FF3220FFF74FFF0C20FFF74CFFC1
:1005F0002820FFF749FF0120FFF746FF08BD00BF95
:1006000000380240000002402DE9F04F89B003ADF0
:1006100000240394049405940694079400944A4B90
:100620001A6B42F080021A631A6B02F08002009289
:10063000009A01941A6B42F001021A631A6B02F0DD
:1006400001020192019A02941A6B42F002021A63AB
:100650001B6B03F002030293029B4FF4404BCDF857
:100660000CB0012704972946384800F0CBFD4FF421
:100670004079CDF80C90DFF8DC802946404600F048
:10068000C1FD4FF4104ACDF80CA0314E294630463A
:1006900000F0B8FD224659462C4800F0A3FE224641
:1006A0004946404600F09EFE22465146304600F044
:1006B00099FE03974FF48813049305972946304613
:1006C00000F0A0FD22460221062000F029FC0620B1
:1006D00000F036FC0F2303934FF4041304930597A3
:1006E00006942946304600F08DFD22460221062060
:1006F00000F016FC062000F023FC22460221072011
:1007000000F00EFC072000F01BFC2246022108200E
:1007100000F006FC082000F013FC2246022109200C
:1007200000F0FEFB092000F00BFC336843F470532B
:100730003360F36823F47053F36045F25553C8F8FF
:10074000003009B0BDE8F08F0038024000080240D8
:10075000000002400004024000B583B00021019176
:10076000094B1A6B42F400121A631B6B03F400135B
:100770000193019B0A46102000F0D2FB102000F0EC
:10078000DFFB03B05DF804FB0038024008B5012030
:1007900000F02EFE08BD08B5022000F029FE08BDBD
:1007A00008B5042000F024FE08BD08B5082000F0BC
:1007B0001FFE08BD10B582B0044600F057FB631E53
:1007C000072B0AD8DFE803F00421093C090909577F
:1007D000364B1B68C31AC82B01D802B010BD334B6F
:1007E000D860334B93E803000090ADF80410090C77
:1007F0008DF806106846FFF7F5FC4FF0FF3382B224
:1008000069462C4801F004FBE7E7284B5B68C31AF4
:10081000C82BE2D9254BD860274B93E80300009002
:10082000ADF80410090C8DF806106846FFF7DAFCE5
:100830004FF0FF3382B269461E4801F0E9FACCE777
:100840001A4B9B68C31AC82BC7D9184BD8601B4BCF
:1008500093E803000090ADF80410090C8DF8061021
:100860006846FFF7BFFC4FF0FF3382B2694611487C
:1008700001F0CEFAB1E70D4BDB68C31AC82BACD937
:100880000A4BD8600E4B93E803000090ADF80410BB
:10089000090C8DF806106846FFF7A4FC4FF0FF33F3
:1008A00082B26946034801F0B3FA96E77800002067
:1008B000B0390008C8000020B8390008C039000865
:1008C000C839000800F01F00034B58639A6842F0D3
:1008D00080429A60704700BF0020014008B502487E
:1008E00001F084FB08BD00BFC800002008B50E4B16
:1008F0001B6813F0020F0DD00B4BDB6C9BB20B4A45
:100900001278052A07D00A4A13800520074B187071
:10091000FFF7D8FF08BD074A13800620034B187065
:10092000FFF7D0FFF6E700BF0020014000000020E5
:10093000C2000020C400002008B50268114B9A4292
:1009400000D008BD104B1B780A2B0BD00D2B09D003
:100950000E4A1278302A0ED8501C0C4908700C49E7
:100960008B5408E0094B19780022094842541A7048
:10097000084B01221A7001220349074801F0A1FC2B
:10098000DFE700BF00100140890000208A0000203E
:100990008C00002088000020C8000020134A536CFF
:1009A00043F480735364124B5A6822F440325A6005
:1009B0005A6842F480325A60A3F5407300225A60AC
:1009C00040F202419960DA621A6942F458221A61CF
:1009D0005A6842F020025A60064A4FF480211160A2
:1009E0009A6842F001029A60704700BF00380240E6
:1009F0000023014000E100E072B6FEE730B589B0A7
:100A0000002401941E4B5A6C42F010025A645A6C36
:100A100002F010020192019A02941A6B42F0010254
:100A20001A631B6B03F001030293029B03A9039457
:100A30004C608C60CC600C614FF4C0630393022364
:100A4000049303230693072307930E4800F0DAFB71
:100A50000D4D0E4B2B604FF4E1336B60AC60EC60DE
:100A60002C610C236B61AC61EC61252000F068FA0D
:100A7000284601F09DF908B909B030BDFFF7BCFF69
:100A80000038024000000240C80000200010014071
:100A900010B594B007AC34220021204601F0E0FCF0
:100AA0000023029303930493059306930093194A3A
:100AB000116C41F080511164126C02F0805200926E
:100AC000009A019314490A6822F4404242F4804299
:100AD0000A600A6802F440420192019A02220792D7
:100AE00001220A9210220B920D93204600F014FE70
:100AF00060B90F230293002103910491059106919F
:100B000002A800F09FFC18B914B010BDFFF774FFE5
:100B1000FFF772FF003802400070004010B5044635
:100B2000FFF760FB02E00022E2540138002803DDF9
:100B3000431EE25C202AF6D010BD000030B589B01B
:100B4000014603AC1322204601F092FC00258DF8EB
:100B50001F502046FFF7E2FF02AAADF8085095703B
:100B60004FF0FF33019301AB0E49204601F04AFCE0
:100B700002280ED10C4902A8FFF72AFB60B90198A0
:100B8000A8420CDBFF2801DC09B030BD4FF0FF307C
:100B9000FAE74FF0FF30F7E74FF0FF30F4E74FF0A0
:100BA000FF30F1E7D0390008D839000830B583B0FC
:100BB00004460378482B0DD02378552B1ED023787C
:100BC000572B2FD023784C2B40D02378452B59D04E
:100BD00003B030BD4378492BEED1344B93E803008A
:100BE0000090ADF804106846FFF7FCFA4FF0FF33B1
:100BF00082B269462E4801F00BF9DDE76378502B8D
:100C0000DDD12C4B93E803000090ADF8041068464A
:100C1000FFF7E8FA4FF0FF3382B26946244801F04B
:100C2000F7F8CCE76378522BCCD1234B93E8030041
:100C30000090ADF804106846FFF7D4FA4FF0FF3388
:100C400082B269461A4801F0E3F8BBE76378492BA2
:100C5000BBD12046FFF772FFB0F1FF3F01D0174B29
:100C60005861174B93E803000090ADF804106846F4
:100C7000FFF7B8FA4FF0FF3382B269460C4801F033
:100C8000C7F8A2E76378532BA2D10E4B93E8030079
:100C90000090ADF804106846FFF7A4FA4FF0FF3358
:100CA00082B26946024801F0B3F891E7DC390008E6
:100CB000C8000020E4390008EC39000800040240B4
:100CC000F4390008FC39000810B584B000F0A8F829
:100CD000FFF7DEFEFFF798FCFFF73EFDFFF78EFE05
:100CE000FFF75CFE0520FFF7EDFD01222F4930489C
:100CF00001F0E7FAFFF750FC0120FFF7C5FB0FE01A
:100D00002C4B1B889BB22C4A128892B29B1A002B48
:100D1000B8BF5B421E2B26DC284B1B78002B39D139
:100D2000274B1B889BB2274A128892B29B1A002B32
:100D3000B8BF5B421E2BE3DD214A13889BB22149D9
:100D40000B80128801AC92B21F49204601F038FB9B
:100D50002046FFF747FA4FF0FF3382B2214614488E
:100D600001F056F8CCE7134A13889BB212490B8066
:100D7000128801AC92B21549204601F021FB2046B1
:100D8000FFF730FA4FF0FF3382B22146084801F0F6
:100D90003FF8C1E7094B00221A700D4C2046FFF7BF
:100DA00067FB2046FFF702FFBAE700BF890000207B
:100DB000C8000020C2000020BE00002088000020E3
:100DC000C4000020C0000020043A0008103A0008C7
:100DD0008C00002010B504460E4B1A784FF47A733D
:100DE000B3FBF2F30C4A1068B0FBF3F000F0ACF880
:100DF00068B90F2C01D901200AE0002221464FF0EA
:100E0000FF3000F08DF8054B1C60002000E0012051
:100E100010BD00BF010000200800002004000020D9
:100E200008B50B4B1A6842F400721A601A6842F453
:100E300080621A601A6842F480721A60032000F01F
:100E40005DF80F20FFF7C6FF00F0E0FA002008BDB4
:100E5000003C0240034A1168034B1B780B441360AB
:100E6000704700BF7001002001000020014B18688E
:100E7000704700BF70010020002807DB00F01F0250
:100E8000400901239340024A42F82030704700BFD6
:100E900000E100E0002808DB0901C9B200F1604070
:100EA00000F5614080F80013704700F00F00090161
:100EB000C9B2014B1954704714ED00E000B500F0C1
:100EC0000700C0F1070CBCF1040F28BF4FF0040C61
:100ED000031D062B0FD9C31E4FF0FF3E0EFA0CF078
:100EE00021EA000199400EFA03FE22EA0E0241EACD
:100EF00002005DF804FB0023EEE70000074AD36818
:100F000023F4E0631B041B0C000200F4E0600343C5
:100F100043F0BF6343F40033D360704700ED00E05B
:100F200010B50446054BD868C0F30220FFF7C6FF92
:100F300001462046FFF7AEFF10BD00BF00ED00E008
:100F400008B5FFF799FF08BD0138B0F1807F0BD2DB
:100F50004FF0E0235861054AF02182F82310002069
:100F6000986107221A6170470120704700ED00E088
:100F700070B50446866DFFF779FF94F83530022B83
:100F800006D080236365002384F83430012070BDCF
:100F900005462268136823F016031360226853691C
:100FA00023F080035361236CE3B12268136823F0BC
:100FB000080313602268136823F001031360236899
:100FC0001B6813F0010F11D0FFF750FF431B052BD7
:100FD000F5D920236365032084F83500002384F8C5
:100FE0003430D4E7A36C002BDFD1E3E7E26D3F237D
:100FF0009340B360012384F83530002084F8340036
:10100000C5E790F83530022B03D0802343650120DB
:101010007047052380F835300268136823F0010318
:101020001360002070470000F0B583B00446002331
:101030000193724B1D68724BA3FB0535AD0A876D9A
:101040003E68C26D08239340334210D003681A688B
:1010500012F0040F0BD01A6822F004021A60C26D5D
:1010600008239340BB60436D43F001034365E26D89
:1010700001239340334209D02268526912F0800F55
:1010800004D0BB60636D43F002036365E26D04232B
:101090009340334209D02268126812F0020F04D044
:1010A000BB60636D43F004036365E26D10239340FE
:1010B000334224D02268126812F0080F1FD0BB60A0
:1010C00023681A6812F4802F0DD01B6813F4002FC8
:1010D00004D1236C9BB12046984710E0A36C73B1F8
:1010E000204698470BE01A6812F4807F03D11A68F3
:1010F00022F008021A60236C0BB120469847E26D7B
:1011000020239340334254D02268126812F0100F0B
:101110004FD0BB6094F83530052B0ED023681A6889
:1011200012F4802F33D01B6813F4002F2AD1636C84
:10113000002B3ED0204698473BE02268136823F0FE
:10114000160313602268536923F080035361236CF4
:10115000A3B12268136823F008031360E26D3F23F4
:101160009340BB60012384F83530002384F8343089
:10117000236D002B3FD0204698473CE0A36C002B0A
:10118000E7D1EBE7E36BA3B12046984711E01A687B
:1011900012F4807F09D11A6822F010021A6001232C
:1011A00084F83530002384F83430E36B0BB12046EB
:1011B0009847636DFBB1636D13F0010F17D00523E2
:1011C00084F835302268136823F001031360019B13
:1011D00001330193AB4204D823681B6813F0010F5D
:1011E000F5D1012384F83530002384F83430E36CE2
:1011F0000BB12046984703B0F0BD00BF08000020A7
:10120000B5814E1B00230F2B00F2E38070B582B036
:1012100065E085684FEA430E032404FA0EF425EADC
:101220000405CC6804FA0EF42C438460446824EA74
:1012300002044A68C2F300129A40224342605CE012
:10124000DC08083450F8242003F00705AD004FF007
:101250000F0E0EFA05FE22EA0E0E0A69AA4042EAB5
:101260000E0240F824205CE0062200E0002202FA90
:101270000EF22A430234574D45F82420564A94680A
:101280006FEA0C0224EA0C054E6816F4801F01D0A8
:101290004CEA0405504CA560E46802EA04054E6877
:1012A00016F4001F01D04CEA04054B4CE56064685D
:1012B00002EA04054E6816F4003F01D04CEA04052A
:1012C000454C6560246822404D6815F4803F01D08C
:1012D0004CEA0402404C226001330F2B77D80122E4
:1012E0009A400C6804EA020C32EA0404F4D14C6817
:1012F00004F00304013C012C8BD94A6802F003027C
:10130000032A09D0C4685D000322AA4024EA02042B
:101310008A68AA402243C2604A6802F00302022A95
:101320008ED004684FEA430E032202FA0EF224EA3A
:1013300002044A6802F0030202FA0EF2224302603B
:101340004A6812F4403FC7D000220192234A546CED
:1013500044F480445464526C02F480420192019A35
:101360009C08A51C1B4A52F8255003F0030E4FEAB7
:101370008E0E0F2202FA0EF225EA0205184A90425A
:101380003FF474AF02F58062904216D002F580629D
:10139000904214D002F58062904212D002F5806231
:1013A000904210D002F5806290420ED002F5806229
:1013B00090423FF459AF072259E7012257E7022232
:1013C00055E7032253E7042251E705224FE702B015
:1013D00070BD704700380140003C014000380240B9
:1013E000000002400AB181617047090481617047C1
:1013F00008B5054B5B69034200D108BD024B58613B
:10140000FFF7D8F9F9E700BF003C014082B00021A6
:1014100000910B4B5A6C42F480425A645A6C02F4AD
:1014200080420092009A01911A6C42F080521A6434
:101430001B6C03F080530193019B02B0704700BF07
:1014400000380240002800F09B8070B50D4604462D
:101450004F4B1B6803F00F038B4208D2CBB24C4AB0
:101460001370136803F00F038B4240F08B802368E6
:1014700013F0020F17D013F0040F04D0454A9368FD
:1014800043F4E0539360236813F0080F04D0414AFB
:10149000936843F4604393603E4A936823F0F003FB
:1014A000A1680B439360236813F0010F32D0636887
:1014B000012B21D09A1E012A25D9364A126812F032
:1014C000020F61D033498A6822F0030213438B6014
:1014D000FFF7CCFC06462F4B9B6803F00C036268B9
:1014E000B3EB820F16D0FFF7C1FC801B41F28833AB
:1014F0009842F0D9032042E0264A126812F4003FD5
:10150000E0D101203BE0234A126812F0007FD9D1DC
:10151000012034E01E4B1B6803F00F03AB4207D9D8
:10152000EAB21B4B1A701B6803F00F03AB422DD1BC
:10153000236813F0040F06D0164A936823F4E0538F
:10154000E1680B439360236813F0080F07D0114A3A
:10155000936823F46043216943EAC103936000F078
:1015600047F80C4B9B68C3F303130B4AD35CD8407A
:101570000A4B18600A4B1868FFF72CFC002070BD5E
:10158000012070470120FAE70120F8E70120F6E783
:10159000003C024000380240243A000808000020C5
:1015A00004000020014B1868704700BF08000020AD
:1015B00008B5FFF7F7FF044B9B68C3F38223034A88
:1015C000D35CD84008BD00BF003802401C3A000878
:1015D00008B5FFF7E7FF044B9B68C3F34233034AA8
:1015E000D35CD84008BD00BF003802401C3A000858
:1015F00008B5464B9B6803F00C03082B05D00C2B59
:1016000043D0042B7FD1424819E0404B5A6802F086
:101610003F025B6813F4800F12D03C4B5968C1F352
:1016200088113B480023A1FB0001FEF739FE374B30
:101630005B68C3F3014301335B00B0FBF3F008BD0B
:10164000324B5868C0F388104FEA401CBCEB000CCA
:101650006EEB0E0E4FEA8E1343EA9C634FEA8C1139
:10166000B1EB0C0163EB0E03DB0043EA5173C900DD
:1016700011EB000C43F10003990200234FEA8C2088
:1016800041EA9C51FEF70CFED1E7204B5A6802F06C
:101690003F025B6813F4800F10D01C4B5968C1F3F4
:1016A00088111B480023A1FB0001FEF7F9FD174B31
:1016B0005B68C3F30273B0FBF3F0C0E7134B5868E9
:1016C000C0F388104FEA401CBCEB000C6EEB0E0E12
:1016D0004FEA8E1343EA9C634FEA8C11B1EB0C0185
:1016E00063EB0E03DB0043EA5173C90011EB000CFE
:1016F00043F10003990200234FEA8C2041EA9C51F8
:10170000FEF7CEFDD3E7034899E700BF003802405B
:1017100040787D010024F400002800F0018270B5BB
:1017200082B00446036813F0010F41D0994B9B68C7
:1017300003F00C03042B32D0964B9B6803F00C0390
:10174000082B27D0934B9B6803F00C030C2B59D02C
:101750006368B3F5803F5BD0B3F5A02F5ED08D4BAF
:101760001A6822F480321A601A6822F480221A6001
:101770006368002B5CD0FFF779FB0546854B1B683F
:1017800013F4003F14D1FFF771FB401B6428F5D917
:101790000320CCE17F4B5B6813F4800FD2D07D4BEC
:1017A0001B6813F4003F03D06368002B00F0BA817C
:1017B000236813F0020F60D0764B9B6813F00C0F78
:1017C0004AD0744B9B6803F00C03082B3FD0714B3D
:1017D0009B6803F00C030C2B69D0E368002B75D0D9
:1017E0006D4B01221A60FFF741FB0546694B1B68F0
:1017F00013F0020F61D1FFF739FB401B0228F5D926
:10180000032094E1634B5B6813F4800FA0D0C6E71C
:10181000604A136843F480331360A9E75D4B1A688C
:1018200042F480221A601A6842F480321A609FE7FC
:10183000FFF71CFB0546574B1B6813F4003FB7D05E
:10184000FFF714FB401B6428F5D903206FE1514BCF
:101850005B6813F4800FBAD14E4B1B6813F0020F74
:1018600003D0E368012B40F05F814A4A136823F0FC
:10187000F803216943EAC1031360236813F0080FDA
:1018800049D06369002B33D0434B0122C3F8802E2B
:10189000FFF7ECFA05463F4B5B6F13F0020F3AD1AE
:1018A000FFF7E4FA401B0228F5D903203FE1394B4A
:1018B0005B6813F4800F90D1CEE7364A136823F0AB
:1018C000F803216943EAC1031360D6E7324B0022D3
:1018D0001A60FFF7CBFA05462E4B1B6813F0020F78
:1018E000CBD0FFF7C3FA401B0228F5D903201EE135
:1018F000294B0022C3F8802EFFF7B8FA0546254B86
:101900005B6F13F0020F06D0FFF7B0FA401B0228FE
:10191000F5D903200BE1236813F0040F76D01D4B9B
:101920001B6C13F0805F33D100230193194B1A6CA9
:1019300042F080521A641B6C03F080530193019BA8
:101940000125164B1B6813F4807F29D0A368012B57
:101950003AD0052B3ED00F4B1A6F22F001021A67C6
:101960001A6F22F004021A67A368002B3CD0FFF71D
:101970007DFA0646074B1B6F13F0020F45D1FFF7A8
:1019800075FA801B41F288339842F3D90320CEE0E8
:101990000025D6E7003802400000474200700040B2
:1019A0006B4A136843F480731360FFF75FFA0646CF
:1019B000674B1B6813F4807FC8D1FFF757FA801B71
:1019C0000228F5D90320B2E0624A136F43F0010305
:1019D0001367C9E75F4B1A6F42F004021A671A6F68
:1019E00042F001021A67BFE7FFF740FA0646594B7B
:1019F0001B6F13F0020F08D0FFF738FA801B41F27B
:101A000088339842F3D9032091E0EDB9A369002B04
:101A100000F08C804F4A926802F00C02082A54D0E1
:101A2000022B17D04C4B00221A66FFF71FFA044610
:101A3000484B1B6813F0007F45D0FFF717FA001BD7
:101A40000228F5D9032072E0424A136C23F0805338
:101A50001364DBE7404B00221A66FFF707FA0546DE
:101A60003C4B1B6813F0007F06D0FFF7FFF9401BCB
:101A70000228F5D903205AE0E369226A1343626A17
:101A800043EA8213A26A5208013A43EA0243E26A35
:101A900043EA0263226B43EA02732E4A53602E4BE1
:101AA00001221A66FFF7E2F904462A4B1B6813F07D
:101AB000007F06D1FFF7DAF9001B0228F5D90320D1
:101AC00035E0002033E0002031E0012B31D0214B04
:101AD0005B6803F48001E26991422CD103F03F027C
:101AE000216A8A4229D1616A47F6C0721A40B2EB74
:101AF000811F24D103F44031A26A5208013AB1EBAC
:101B0000024F1ED103F07062E16AB2EB016F1AD18D
:101B100003F0E043226BB3EB027F16D1002006E016
:101B200001207047012002E0012000E0002002B007
:101B300070BD0120FBE70120F9E70120F7E7012054
:101B4000F5E70120F3E70120F1E70120EFE700BF0F
:101B5000007000400038024000004742026802F175
:101B60000C0353E8003F23F490730C3242E8003139
:101B70000029F3D1026802F1140353E8003F23F077
:101B80000103143242E800310029F3D1036B012B29
:101B900005D0202380F84230002303637047026899
:101BA00002F10C0353E8003F23F010030C3242E82B
:101BB00000310029F3D1ECE790F84130212B01D01E
:101BC000022070478368B3F5805F17D0036A5A1C00
:101BD00002621A7803685A60C38C9BB2013B9BB2C5
:101BE000C3844BB90268D36823F08003D3600268D2
:101BF000D36843F04003D360002070470369002B93
:101C0000E4D1036A1B880268C3F308035360036AC4
:101C100002330362E0E7000010B50446026813696E
:101C200023F44053C1680B431361836802691A436C
:101C300043691A43C3691A430168CB6823F4164306
:101C400023F00C031343CB600268536923F4407301
:101C500081690B4353610368314A934206D002F510
:101C60008062934202D0FFF7A3FC01E0FFF7B0FCD3
:101C7000E369B3F5004F29D00021031849411B182F
:101C800041F10001C90041EA5371DB001818636893
:101C90004FEA83024FEA937341F10001FEF700FB24
:101CA000204AA2FB00314909642303FB11031B01F5
:101CB0003233A2FB03235B0903F0F00202EB0112B3
:101CC00003F00F03216813448B6010BD002302183A
:101CD00043EB0301121841F10001C90041EA5271BE
:101CE000D200101841F10001626892185B41FEF7C2
:101CF000D7FA0C4AA2FB00314909642303FB110304
:101D0000DB003233A2FB03235B095A0002F4F872B2
:101D100002EB011203F00703216813448B60D4E740
:101D2000001001401F85EB512DE9F04383B00546BB
:101D30000E4617469946DDF828802B681C6836EA5F
:101D400004040CBF01240024BC4228D1B8F1FF3F99
:101D5000F3D0FFF78BF8A0EB0900404523D8B8F18A
:101D6000000F22D02B68DA6812F0040FE5D0802E25
:101D7000E3D0402EE1D01A6812F0080FDDD0002425
:101D800001941A6801925B680193019B2846FFF752
:101D9000E5FE08236B6485F84040012000E0002048
:101DA00003B0BDE8F0830320FAE70320F8E77047AB
:101DB00060B310B5044690F8413013B3242384F87F
:101DC00041302268D36823F40053D3602046FFF7E4
:101DD00023FF2268136923F4904313612268536937
:101DE00023F02A0353612268D36843F40053D3607D
:101DF00000206064202384F8413084F8423060631E
:101E000010BD80F84030FFF7D2FFD7E701207047C0
:101E10002DE9F04182B01E4690F84130202B56D17A
:101E200004460D469046002955D00AB901204FE0DE
:101E300000234364212380F84130FFF717F8074659
:101E4000A4F82480A4F82680A368B3F5805F02D0AC
:101E50004FF0000814E023692BB34FF000080FE0A7
:101E6000202384F84130032032E038F8023B226816
:101E7000C3F308035360E28C92B2013A92B2E28457
:101E8000E38C9BB293B100963B4600228021204612
:101E9000FFF74AFF0028E3D1002DE6D015F8012B0B
:101EA00023685A60E7E7A8460025E9E700963B4625
:101EB000002240212046FFF737FF18B9202384F87D
:101EC000413005E0202384F84130032000E0022067
:101ED00002B0BDE8F0810120FAE7704708B501685B
:101EE000CA6822F04002CA60202280F84120FFF731
:101EF000F4FF002008BD704708B5806B0023C38540
:101F0000FFF7F9FF08BD704790F84230222B69D1E6
:101F10008368B3F5805F4FD0826AB3F5805F04D0E9
:101F2000002B56D10369002B53D103685B681370F3
:101F3000836A01338362C38D9BB2013B9BB2C3852D
:101F4000002B51D100B583B00268D36823F0200381
:101F5000D3600268D36823F48073D3600268536946
:101F600023F001035361202380F8423000234363B0
:101F7000036B012B33D100230363026802F10C03CE
:101F800053E8003F23F010030C3242E800310029EF
:101F9000F3D103681A6812F0100F06D000220192E4
:101FA0001A6801925B680193019B818DFFF7ABFF7B
:101FB000002003B05DF804FB0269002AACD1826AFC
:101FC00003685B68C3F308031380836A0233836288
:101FD000B1E703685B6803F07F031370A8E7FEF7BF
:101FE000ABFCE5E7022070470020704710B582B0D7
:101FF000044602681368D068516913F00F0F09D1C5
:1020000013F0200F0CD010F0200F09D02046FFF75E
:102010007BFF16E011F0010115D110F4907F12D171
:10202000216B012979D013F0800F03D010F0800FBD
:1020300040F0218113F0400F03D010F0400F40F02A
:102040001E8102B010BD13F0010F06D010F4807F86
:1020500003D0626C42F00102626413F0040F04D0FA
:1020600019B1626C42F00202626413F0020F04D0F4
:1020700019B1626C42F00402626413F0080F07D0D9
:1020800010F0200F00D119B1626C42F008026264B6
:10209000626C002AD5D013F0200F02D010F0200F70
:1020A00029D123685B6903F04003626C12F0080FCA
:1020B00000D163B32046FFF751FD23685B6913F03D
:1020C000400F20D0226802F1140353E8003F23F0B0
:1020D0004003143242E800310029F3D1E36B73B1BD
:1020E000694A1A65E06BFEF78CFF0028A9D0E06B07
:1020F000036D9847A5E72046FFF706FFD1E7204686
:10210000FFF7F9FE9DE72046FFF7F5FE99E7204629
:10211000FFF7F1FE0023636493E713F0100F82D002
:1021200010F0100F3FF47FAF002301931368019369
:1021300053680193019B536913F0400F5FD0E26B2A
:1021400013685B689BB2002B4AD0A18D994247D996
:10215000E385D369B3F5807F37D0226802F10C03A1
:1021600053E8003F23F480730C3242E80031002929
:10217000F3D1226802F1140353E8003F23F0010376
:10218000143242E800310029F3D1226802F114032D
:1021900053E8003F23F04003143242E800310029A5
:1021A000F3D1202384F8423000232363226802F114
:1021B0000C0353E8003F23F010030C3242E80031D7
:1021C0000029F3D1E06BFEF7D3FE02236363A18DF8
:1021D000E38D9BB2C91A89B22046FFF794FE30E71F
:1021E000A18D99427FF42DAFD369B3F5807F7FF441
:1021F00028AF022363632046FFF785FE21E7A18D08
:10220000E38D9BB2C91A89B2E38D9BB2002B3FF4D8
:1022100018AF00293FF415AF226802F10C0353E810
:10222000003F23F490730C3242E800300028F3D1D1
:10223000226802F1140353E8003F23F00103143233
:1022400042E800300028F3D1202384F842300023F4
:102250002363226802F10C0353E8003F23F01003CC
:102260000C3242E800300028F3D102236363204699
:10227000FFF749FEE5E62046FFF79EFCE1E6204633
:10228000FFF72CFEDDE600BFF91E000881628285A3
:10229000C28500234364222380F84230036923B1BE
:1022A0000268D36843F48073D3600268536943F0D3
:1022B000010353610268D36843F02003D360002018
:1022C000704708B590F84230202B08D149B10AB9BF
:1022D000012008BD00230363FFF7D8FFF9E70220C0
:1022E000F7E70120F5E7FEE7FEE7FEE7FEE7FEE79A
:1022F00070477047704708B5FEF7ACFD08BD000099
:1023000008B50248FEF790FE08BD00BF100100208E
:1023100010B503460C4A0D490D48006840B10C4801
:1023200000680344521A934206D8094A136010BD4C
:102330000748084C0460F2E700F0AEF80C23036095
:102340004FF0FF30F3E700BF000002200004000060
:1023500074010020C0020020034AD2F8883043F400
:102360007003C2F88830704700ED00E0DFF834D029
:10237000FFF7F2FF0C480D490D4A002302E0D45844
:10238000C4500433C4188C42F9D30A4A0A4C0023BF
:1023900001E013600432A242FBD300F083F8FEF7A1
:1023A00093FC704700000220000000205C00002029
:1023B000943B00085C000020C0020020FEE7000003
:1023C0000EB410B59DB01FAB029006906FF00041A7
:1023D0000A48079104910A4953F8042B05910024F7
:1023E00002A9006801931B9400F0DAF9029B1C70AB
:1023F0001DB0BDE8104003B0704700BF0C000020C6
:102400000802FFFF0EB470B59DB021AC00254FF45B
:10241000017254F8046BADF814201B9502900690DD
:10242000FDF7E0FE0B4B039007900B480B934FF624
:10243000FF73ADF816303246234602A900680F95A7
:102440001495019400F002FB1DB0BDE8704003B08C
:10245000704700BF5D2400080C000020002070477A
:1024600002440346934200D1704703F8011BF9E789
:1024700010B50139034632B111F8014F03F8014B91
:10248000013A002CF7D11A440021934200D110BD2B
:1024900003F8011BF9E70000014B1868704700BF03
:1024A0000C00002070B50D4B0D4D5B1B9C100026E1
:1024B000A64209D101F06AFA0A4D0B4B5B1B9C1036
:1024C0000026A64205D170BD55F8043B9847013659
:1024D000EEE755F8043B98470136F2E78C3B0008DD
:1024E0008C3B00088C3B0008903B0008704770470D
:1024F00038B50546002941D051F8043C0C1F002B8B
:10250000B8BFE41800F0E0F81D4A136833B96360FF
:1025100014602846BDE8384000F0DCB8A34208D972
:10252000206821188B4201BF19685B680918216077
:10253000EDE71A465B680BB1A342FAD9116850184F
:10254000A0420BD120680144501883421160E0D1B1
:1025500018685B68536008441060DAE702D90C23FE
:102560002B60D6E7206821188B4204BF19685B688E
:10257000636004BF091821605460CAE738BD00BF1A
:10258000BC02002070B50F4E0C463168054611B9EB
:1025900000F040FF30602146284600F03BFF431C1E
:1025A00003D14FF0FF34204670BDC41C24F0030457
:1025B000A042F8D0211A284600F02CFF0130F2D1B9
:1025C000EFE700BFB80200202DE9F843CD1C25F04D
:1025D000030508350C2D38BF0C25002D064601DB00
:1025E000A94204D90C2333600020BDE8F883DFF84A
:1025F000D48000F069F8D8F800301C4644BB294666
:102600003046FFF7BFFF431C044658D1D8F80040BE
:102610002746002F43D1002C4BD023683946304643
:1026200004EB030900F0F6FE814542D121686D1AE2
:1026300029463046FFF7A6FF01303AD023682B44E5
:102640002360D8F800305A6862BBC8F800700FE009
:102650002268521B20D40B2A17D96119A342256086
:1026600018BF5960636808BFC8F8001062514B601A
:10267000304600F02FF804F10B00231D20F0070076
:10268000C21A1CBF1B1AA350AFE76268A3420CBF5B
:10269000C8F800205A60EBE723466468AEE73C4682
:1026A0007F68B6E71A465B68A342FBD100235360FC
:1026B000DEE70C233360304600F00CF894E7056049
:1026C000D6E700BFBC0200200148FFF70FBF00BFE4
:1026D000B40200200148FFF70ABF00BFB402002087
:1026E0002DE9F0478E681F46BE4282460C46904652
:1026F000334653D8B1F90C0010F4906F2BD06569B4
:102700002368096905EB4505A3EB010905EBD575C0
:102710007B1C6D104B44AB422A4684BF1D462A46A3
:10272000430527D511465046FFF74EFF064658B3DE
:1027300021694A4600F07EFEA38923F4906343F0AA
:102740008003A381266165614E44A5EB09052660DF
:10275000A5603E463B461F4620683A46414600F08B
:1027600040FEA3689B1BA36023683B4423600020BA
:10277000BDE8F087504600F06BFE06460028E1D128
:1027800021695046FFF7B4FE0C23CAF80030A38934
:1027900043F04003A3814FF0FF30E9E73E46DBE71B
:1027A0002DE9F04F98468B891B069DB007460D46D4
:1027B000144610D50B6973B94021FFF705FF286057
:1027C000286130B90C233B604FF0FF301DB0BDE8ED
:1027D000F08F40236B610023099320238DF829306B
:1027E000CDF80C803023DFF89C818DF82A304FF033
:1027F000010923469A4613F8012B0AB1252AF9D17B
:10280000BAEB040B0BD05B46224629463846FFF74D
:1028100067FF013000F0A780099A5A4409929AF89C
:102820000030002B00F09F8000234FF0FF32CDE9F5
:1028300005230AF1010A049307938DF853301A9384
:102840005446052214F8011B4E48FDF7D9FC049AA2
:10285000D8B9D00644BF20238DF85330110744BFA8
:102860002B238DF853309AF800302A2B15D0079A75
:10287000544600204FF00A0C214611F8013B303B32
:10288000092B4BD9B0B1079214E0A0EB080309FA69
:1028900003F313430493A246D2E7039B191D1B685D
:1028A0000391002BBBBF5B4242F0020207930793E8
:1028B000B8BF049223782E2B0AD163782A2B32D109
:1028C000039B1A1D1B68039243EAE37302340593CA
:1028D000DFF8C0A0217803225046FDF791FC38B103
:1028E000049BA0EB0A00402282401343013404936E
:1028F00014F8011B24488DF828100622FDF780FCEF
:10290000002836D0214B1BBB039B073323F0070362
:1029100008330393099B334409936AE70CFB0232A3
:102920000C460120A8E700230134059319464FF017
:102930000A0C204610F8012B303A092A03D9002B43
:10294000C6D00591C4E70CFB012104460123F0E742
:1029500003AB00932A460E4B04A93846AFF3008020
:10296000421C0646D6D1AB895B063FF52DAF0998D0
:102970002CE703AB00932A46054B04A9384600F028
:1029800051FAEDE7343A00083E3A00080000000032
:10299000E12600083A3A000838B54B1C144603D12A
:1029A0004FF0FF35284638BD938923F020039381EB
:1029B000636B5268CDB28BB1A36B934208DD236881
:1029C0005A1E226003F8015C636801336360E9E723
:1029D000214600F0CCFC0028F1D0E1E72169236812
:1029E00051B1994208D213F8011CA94204D1013B0C
:1029F000013223606260D5E7C4E90F3204F1440379
:102A000063630323A363234603F8465F2360012324
:102A1000DCE710B50C46496B69B104F144039942F7
:102A200001D0FFF765FD236C63600020606313B184
:102A3000E36B236010BD2369236000236360A389D7
:102A400043F02003A3814FF0FF30F3E72DE9F04F6F
:102A5000ADF5237D41AC0D460021C4E9031101A968
:102A60006161AF49C4F87C11DFF8C4B2AD49C4F864
:102A700080110746E846009392F80090B9F1000FE4
:102A800000F060811BF8093013F0080302F1010621
:102A90001BD06B68002B10DD2B681A781BF8022006
:102AA000120701D43246E7E72269013222616A68DF
:102AB0000133013A6A602B60EBE7D4F88031294694
:102AC000384698470028E7D0ECE7B9F1250F40F0E9
:102AD00084802360A36053782A2B02BF1023961CA6
:102AE00023600A22B2461AF8011BA1F13003092B18
:102AF0001DD98D4B03221846FDF782FB38B18A4B56
:102B00002268C01A0123834013432360564616F8F7
:102B1000013B782B06D8572B10D8252B5DD057D8E2
:102B2000002B76D00323A3610A23636089E0A368A6
:102B300002FB03113039A1605646D3E7A3F15802D6
:102B4000202AEFD801A151F822F000BF212C000863
:102B5000252B0008252B00087D2C0008252B0008BC
:102B6000252B0008252B0008252B0008252B000805
:102B7000252B0008252B0008932C0008792C000831
:102B8000D72B0008D72B0008D72B0008252B0008CF
:102B9000332C0008252B0008252B0008252B0008C6
:102BA000252B0008A32C00083B2C0008192C00083A
:102BB000252B0008252B00089F2C0008252B00083A
:102BC000792C0008252B0008252B0008212C000853
:102BD000453B022BA6D8052332E06B68002B0DDDA8
:102BE0002B681A784A4540F0AD8001336A682B6043
:102BF0002369013A01336A60236153E7D4F88031D5
:102C00002946384698470028EAD0E068002840F076
:102C100091804FF0FF3091E0226842F02002226064
:102C2000226842F40072226010226E2B626006D885
:102C300001E000236360032302E0082363600423B0
:102C4000A3616B68002B3CDD2368590605D42B6813
:102C50001A781BF8022012073BD4A369022B4BDC25
:102C600043462A462146384600F0FCF9012869D03F
:102C700002287FF417AFC8E70A22D6E7314601A839
:102C800000F03CFB236843F0400323600646012329
:102C9000D6E7236843F0400323600023D0E70223F4
:102CA000CEE72068C3063FF5FDAED8F800302269B4
:102CB000191DC8F800101B68C0074CBF1A801A60A5
:102CC000F0E6D4F880312946384698470028BBD032
:102CD0009BE72269013222616A68013A002A6A6030
:102CE00002DD01332B60B2E7D4F880312946384643
:102CF00098470028ABD088E7042B06DC43462A46D9
:102D00002146384600F008FAB0E7084B002B3FF4A4
:102D1000C9AE43462A4621463846AFF30080A5E7B0
:102D200099290008132A00083A3A00080000000018
:102D3000833A0008AB895B063FF56BAF0DF5237D49
:102D4000BDE8F08FE068F9E72DE9F04716469846B0
:102D50008A680B69DDF820909342B8BF1346336050
:102D600091F8432007460C460AB1013333602368CB
:102D7000990642BF336802333360256815F00605B3
:102D800006D104F1190AE36832689B1AAB4226DCCB
:102D900094F843302268003B18BF012392062BD4DD
:102DA00004F1430241463846C84701301ED023682B
:102DB000226903F00603042B02BFE5683368ED1AAD
:102DC000A3680CBF25EAE57500259342C4BF9B1A92
:102DD000ED1800261A34B5421AD1002008E001236C
:102DE000524641463846C847013003D14FF0FF30C4
:102DF000BDE8F0870135C6E7E1185A1C302081F89C
:102E00004300224494F8451082F843100233C7E788
:102E10000123224641463846C8470130E6D00136F4
:102E2000D9E700002DE9FF470F7E0C9E782F9146D1
:102E300080460C469A4601F1430207D8622F0AD811
:102E4000002F00F0D280582F00F0B78004F1420626
:102E500084F842703AE0A7F16303152BF6D801A17C
:102E600051F823F0BD2E0008D12E00084D2E000889
:102E70004D2E00084D2E00084D2E0008D12E0008C2
:102E80004D2E00084D2E00084D2E00084D2E000836
:102E9000D12F0008FB2E0008872F00084D2E0008B8
:102EA0004D2E0008F32F00084D2E0008FB2E0008C1
:102EB0004D2E00084D2E00088F2F000833681A1D74
:102EC0001B68326004F1420684F8423001239DE021
:102ED00033682068191D3160060601D51D6803E0BE
:102EE0004506FBD5B3F90050002D03DA2D236D42C2
:102EF00084F8433059480A2310E0216833680806F3
:102F000053F8045B02D4490648BFADB26F2F534853
:102F1000336059D10823002184F843106668A66005
:102F2000002E05DB21682E4321F0040121604DD0E5
:102F30001646B5FBF3F103FB1157C75D06F8017D9B
:102F40002F46BB420D46F4D9082B0BD12368DF076F
:102F500008D5236961689942DEBF302306F8013C39
:102F600006F1FF36921B2261CDF800A04B4603AA62
:102F700021464046FFF7E8FE01304CD14FF0FF30CC
:102F800004B0BDE8F087236843F020032360344891
:102F9000782784F84570236831681F0651F8045B70
:102FA00002D45F0648BFADB23160D90744BF43F0D9
:102FB000200323601DB11023ADE72848E9E723680B
:102FC00023F020032360F6E70A23A4E71646BBE7B5
:102FD000336825686169181D30602E061B6801D5AD
:102FE000196002E06806FBD51980002323611646AC
:102FF000BAE733681A1D32601E68626800213046E5
:10300000FDF7FEF808B1801B606063682361002350
:1030100084F84330A8E72369324649464046D04702
:103020000130ABD023689B0713D4E068039B984220
:10303000B8BF1846A4E70123324649464046D04768
:1030400001309BD00135E36803995B1AAB42F2DC97
:10305000EBE7002504F11906F5E700BF453A000843
:10306000563A00082DE9F84315468A6880460C4612
:1030700032B98A69002A14BF4FF0FF3201228A60F8
:103080002268DFF89090D1065FBF1A68111D1960A1
:1030900016680027A06988B1012807D12B681A7823
:1030A00063699B5C53B9002F31D022E0022820D104
:1030B0002B681B7819F803301B071AD42368DA062B
:1030C0005EBF2B681B7806F8013B2A686B680132EB
:1030D0002A60A268013B013A6B600137A26042B1ED
:1030E000002BD7DCD4F88031294640469847002889
:1030F000D0D0236813F0100305D1E2680132E260FA
:10310000A26902B1337023693B4423610020BDE80A
:10311000F88300BF833A00082DE9F04F9846734BBF
:103120000C468246164693E8070087B003AB83E857
:1031300007006F4BA1696F4A032908BF1A46A368AD
:1031400001925A1EB2F5AE7F88BF6FF4AE75274666
:1031500082BF03EB050940F25D13A36057F81C3BE7
:1031600043F4506398BF4FF0000923603D464FF091
:10317000000B316803AB097853F82B000222FDF7EE
:103180003FF828B3BBF1010F58D162682AB9226811
:10319000082142F4007261602260226822F4A06279
:1031A0002260A268511EA16092B13268511C316048
:1031B000127805F8012B7268013A002A726007DC68
:1031C000D4F88021314650469047002840F0838053
:1031D0000BF1010BBBF1030FCBD1616809B90A21D7
:1031E0006160454B6069591A00F088F84FF0000B98
:1031F000A3682268002B3DD03168606991F800C057
:1032000010F80C00002835D0BCF1300F24D1100587
:1032100022D50BF1010BB9F1000F03D0013309F1F5
:10322000FF39A3607368013B002B73601BDD3368BB
:1032300001333360A368013BA360D9E7BBF1020F00
:10324000AFD1226802F4C061B1F5007FC5D1102171
:10325000616042F48072A3E722F4106222600B786E
:1032600005F8013BDEE7D4F88031314650469847F7
:103270000028DFD02368DB050DD5BD4209D915F83C
:10328000011CD4F87C3132465046984705F1FF398D
:103290004D46BD4227D0226812F0100212D12A708A
:1032A0006368019E39465046B047D8F8003021681F
:1032B0001A1DC8F800208E061B680FD51860E36839
:1032C0000133E3602369ED1B5D442B44236100203F
:1032D00007B0BDE8F08F4FF0000BCBE7CA074CBF3B
:1032E00018801860EBE70120F2E700BFA43900085E
:1032F000A135000881360008773A000870B50B78D0
:1033000004465E2B0BBF4B784A1C8A1C002108BF69
:103310000121013804F1FF0500F8011FA842FBD18B
:103320000BB9501E70BD81F00101E15410460246F8
:1033300012F8015B2D2D05D05D2D16D0002DF1D09A
:103340002B46F2E746785D2EFAD0B342F8DC023025
:103350001A4601329642A154FBDCF21A013AB342FA
:10336000A8BF002201331344E1E71046DAE72DE954
:10337000F0410C46496B04F1440399421DD14FF4CE
:103380008061FFF721F918B94FF0FF30BDE8F081F7
:103390004FF48063A36394F84630606380F8FF3392
:1033A00094F8453080F8FE3394F8443080F8FD33CB
:1033B00000F2FD3020600020E8E7A66B77003A4677
:1033C00000F046F805460028DED000EB060801466E
:1033D0003246404600F02EF8C4E90D57C4F800808C
:1033E000E9E7884210B501EB020402D98442234682
:1033F00007D8431EA14207D011F8012B03F8012F73
:10340000F8E70244824200D110BD13F8011D02F812
:10341000011DF7E738B5064D0023044608462B602A
:10342000FEF776FF431C02D12B6803B1236038BD41
:10343000B00200200A44914200F1FF3300D17047EE
:1034400010B511F8014B03F8014F9142F9D110BDAD
:103450002DE9F041074614460D4621B9BDE8F0417B
:103460001146FFF7B1B82AB9FFF742F825462846BA
:10347000BDE8F08100F006F98442064602D8B4EBBC
:10348000500FF4D821463846FFF79EF8804608B919
:103490004546ECE7B4422246294628BF3246FFF7AC
:1034A000C9FF29463846FFF723F8F1E7242B2DE919
:1034B000F0478646904601D8012B06D1FEF7ECFF77
:1034C000162303600020BDE8F08734480D462A46E5
:1034D00015F8014B065D16F00806F8D12D2C10D119
:1034E0002C780126951C33F0100215D1302C0DD10B
:1034F0002A7802F0DF02582A08D16C7802351023AE
:103500000AE02B2C04BF2C78951CECE7002BF6D19D
:10351000302C14BF0A23082306F1004C0CF1FF3CA9
:103520000022BCFBF3F9104603FB19CAA4F13007D3
:10353000092F0FD83C46A3421BDD571C07D08145FD
:1035400014D301D1A24511DB00FB0340012215F881
:10355000014BEBE7A4F14107192F01D8373CEAE70B
:10356000A4F16107192F04D8573CE4E74FF0FF326C
:10357000EDE7531C08D12223CEF800306046B8F1A5
:10358000000FA0D0691E06E006B14042B8F1000F5E
:1035900099D0002AF6D1C8F8001094E7833A0008C1
:1035A000FFF784BF2DE9F043344E86460D4628468A
:1035B00015F8014B375D17F00807F8D12D2C10D105
:1035C0002C780127851C33F0100015D1302C0DD13B
:1035D000287800F0DF00582808D16C7802351023D5
:1035E0000AE02B2C04BF2C78851CECE7002BF6D1CD
:1035F000302C14BF0A2308234FF0FF380026B8FBF5
:10360000F3F803FB08F96FEA09093046A4F1300C1E
:10361000BCF1090F10D86446A3421EDDB6F1FF3F8E
:1036200007D0804516D301D1A14513DB00FB034031
:10363000012615F8014BE9E7A4F1410CBCF1190F83
:1036400001D8373CE8E7A4F1610CBCF1190F04D8AC
:10365000573CE1E74FF0FF36EBE7731C06D122231E
:10366000CEF80030304632B9BDE8F08307B14042B1
:10367000002AF9D006B1691E1160F5E7833A000807
:10368000FFF790BF51F8043C181F002BBCBF0B582C
:10369000C01870472DE9F047089D0F4604468C4638
:1036A000002B48D18A42164661D9B2FA82F34BB157
:1036B000C3F1200201FA03FC20FA02F29E4042EA22
:1036C0000C0C9C404FEA164EB7B2BCFBFEF1220C2C
:1036D0000EFB11CC42EA0C4201FB07F0904209D9E3
:1036E000B21801F1FF3C80F0EE80904240F2EB8096
:1036F00002393244121AA4B2B2FBFEF00EFB1022C1
:1037000044EA024400FB07F7A74209D9341900F143
:10371000FF3280F0DA80A74240F2D780344402388A
:1037200040EA0140E41B00211DB1DC400023C5E953
:103730000043BDE8F0878B4206D90DB1C5E9000111
:1037400000210846BDE8F087B3FA83F1002948D18B
:10375000BB4202D3824200F20781841A67EB030264
:1037600001209446002DE4D0C5E9004CE1E7002A91
:1037700000F09280B2FA82F3002B40F0A8808A1AFF
:103780004FEA164E1FFA86FC0121200CB2FBFEF711
:103790000EFB172240EA02420CFB07F0904207D9C9
:1037A000B21807F1FF3802D2904200F2E280474699
:1037B000121AA4B2B2FBFEF00EFB102244EA02443D
:1037C0000CFB00FCA44507D9341900F1FF3202D2EA
:1037D000A44500F2CB801046A4EB0C0440EA07405D
:1037E000A2E7C1F120068B4022FA06FC4CEA030C4A
:1037F00007FA01F420FA06F3F7404FEA1C49234385
:1038000000FA01F81FFA8CFEB7FBF9F01C0C09FB5B
:10381000107744EA074400FB0EF7A74202FA01F2D0
:103820000AD91CEB040400F1FF3A80F09B80A74208
:1038300040F2988002386444E41B9FB2B4FBF9F371
:1038400009FB134447EA044403FB0EFEA64509D9CD
:103850001CEB040403F1FF3780F08280A6457FD97A
:10386000023B644443EA0040A4EB0E04A0FB02E7E1
:10387000BC427346B94663D360D05DB1B8EB030276
:1038800064EB090404FA06F622FA01F31E43CC4065
:10389000C5E9006400214CE76208480842EAC171AA
:1038A0000B0C43EA00438AB242EA0342B3FBF6F14F
:1038B000E407B4463746B6461F23B0FBF6F0D21BEA
:1038C00041EA004161E7614614E7104628E7C3F189
:1038D000200120FA01F29E4027FA01F19F403A436D
:1038E0004FEA164E1FFA86FCB1FBFEF70EFB1710CF
:1038F000110C41EA004107FB0CF8884504FA03F477
:103900003AD9711807F1FF3001D288451FD8A1EBD1
:103910000801B1FBFEF808FB0CF70EFB181192B280
:1039200042EA0142BA422FD2B21808F1FF31C6D2A0
:10393000BA42C4D2A8F102013244C0E7F0459CD299
:10394000BEEB020367EB0C070138B94695E7A6EB1F
:1039500008084144B81EB1FBFEF808FB0CF7DCE791
:103960003B467FE7504667E70846FBE634440238AB
:1039700032E7023F32441BE7A1EB08013846B1FBB6
:10398000FEF808FB0CF7C8E7414698E7F8B500BF1A
:10399000F8BC08BC9E467047F8B500BFF8BC08BC30
:0439A0009E46704788
:1039A400793A00087C3A00087F3A000842544E30C5
:1039B4000D0A000042544E310D0A000042544E32AA
:1039C4000D0A000042544E330D0A000025327320C4
:1039D400256400004C4900004845590D0A000000C8
:1039E4005945530D0A0000004449440D0A000000E3
:1039F4004C49540D0A00000053484F0D0A000000C2
:103A0400504F5430202534750D0A0000504F543166
:103A1400202534750D0A0000000000000102030493
:103A2400000000000000000001020304060708096A
:103A3400232D302B2000686C4C0065666745464793
:103A44000030313233343536373839414243444516
:103A54004600303132333435363738396162636485
:103A6400656600412D46612D663839303132333474
:103A74003536375D002B2D0030300078580000209B
:103A8400202020202020202028282828282020200A
:103A940020202020202020202020202020202088BA
:103AA400101010101010101010101010101010041E
:103AB400040404040404040404101010101010106E
:103AC4004141414141410101010101010101010162
:103AD4000101010101010101010110101010101078
:103AE4004242424242420202020202020202020232
:103AF400020202020202020202021010101020004E
:103B040000000000000000000000000000000000B1
:103B140000000000000000000000000000000000A1
:103B24000000000000000000000000000000000091
:103B34000000000000000000000000000000000081
:103B44000000000000000000000000000000000071
:103B54000000000000000000000000000000000061
:103B64000000000000000000000000000000000051
:103B74000000000000000000000000000000000041
:083B84004CC6FF7F01000000A8
:043B8C00F902000832
:043B9000D502000852
:103B940005010000100000000024F40010000020C3
:103BA4000000000078010020E0010020480200200D
:103BB4000000000000000000000000000000000001
:103BC40000000000000000000000000000000000F1
:103BD40000000000000000000000000000000000E1
:0C3BE400000000000000000000000000D5
:040000050800236D5F
:00000001FF
