:020000040800F2
:1000000000000220B91A0008331A0008351A000847
:10001000371A0008391A00083B1A000800000000CF
:100020000000000000000000000000003D1A000871
:100030003F1A000800000000411A0008431A000897
:10004000091B0008091B0008091B0008091B000800
:10005000091B0008091B0008590600086306000870
:100060006D06000877060008091B0008091B000838
:10007000091B0008091B0008091B0008091B0008D0
:100080004D1A0008091B0008A9070008091B0008F1
:10009000091B0008091B0008091B0008091B0008B0
:1000A000091B0008091B0008091B0008091B0008A0
:1000B000091B0008091B0008091B0008091B000890
:1000C000091B0008091B0008091B0008091B000880
:1000D000091B0008091B0008091B0008091B000870
:1000E000091B0008091B0008091B0008091B000860
:1000F000091B0008091B0008091B0008091B000850
:10010000091B0008091B0008091B0008091B00083F
:10011000091B0008091B0008091B0008091B00082F
:10012000091B0008091B0008091B0008091B00081F
:10013000091B00080000000000000000091B000867
:10014000091B0008091B0008091B0008091B0008FF
:10015000091B0008091B0008091B0008091B0008EF
:10016000091B0008091B0008091B0008091B0008DF
:10017000091B0008091B0008091B000800000000FB
:1001800000000000091B0008000000000000000043
:10019000091B00080000000000000000091B000807
:1001A000000000000000000000000000091B000823
:1001B000091B0008091B0008091B0008091B00088F
:0401C000091B00080F
:1001D000034613F8012B002AFBD1181A0138704787
:1001E00001F0FF01102A2BDB10F0070F08D010F8E8
:1001F000013B013A8B422DD010F0070F42B3F6D1EC
:10020000F0B441EA012141EA014122F007047FF004
:1002100000070023F0E80256083C85EA010586EA5B
:10022000010685FA47F5A3FA87F586FA47F6A5FA97
:1002300087F68EB9EED1F0BC01F0FF0102F00702A3
:1002400032B110F8013B013A83EA010313B1F8D14E
:100250000020704701387047002D06BF354603382F
:10026000073815F0010F07D1013015F4807F02BF68
:10027000013015F4C03F0130F0BC0138704700BFB9
:1002800053B94AB9002908BF00281CBF4FF0FF31FD
:100290004FF0FF3000F00CB8ADF1080C6DE904CE62
:1002A00002F0DAF8DDF804E0DDE9022304B070477B
:1002B000704700BF10B5054C237833B9044B13B118
:1002C0000448AFF300800123237010BD5C000020C0
:1002D000000000005027000808B5034B1BB103497C
:1002E0000348AFF3008008BD00000000600000205C
:1002F0005027000882B000EB40000023019304E087
:1003000000BF00BF019B01330193019B8342F7D3E0
:1003100002B0704710B51420FFF7ECFF094CA36939
:1003200043F40043A3611420FFF7E4FFA36943F003
:100330000043A3611420FFF7DDFFA36943F40043EA
:10034000A36110BD0008024010B504463F4A9369FE
:1003500043F08043936110F0800F45D13C4A93698C
:1003600043F00043936114F0400F44D0384A93693E
:1003700043F48053936114F0200F42D0354A9369BF
:1003800043F40073936114F0100F40D0314A936925
:1003900043F480739361FFF7BDFF14F0080F3CD066
:1003A0002B4A936943F40043936114F0040F3AD04D
:1003B000274A936943F48053936114F0020F38D0B5
:1003C000244A936943F40073936114F0010F36D00B
:1003D000204A936943F480739361FFF79BFF40F6D3
:1003E000B830FFF787FF10BDA2F50062936943F4B0
:1003F00000439361B7E7164A936943F080539361D2
:10040000B9E7144A936943F000739361BBE7114A5B
:10041000936943F080739361BDE70D4A936943F09C
:1004200000439361C1E70A4A936943F080539361A3
:10043000C3E7084A936943F000739361C5E7054A2F
:10044000936943F080739361C7E700BF00080240DF
:10045000000002400004024008B5194B1A6B42F03C
:1004600001021A631A6B42F002021A631A6B42F01D
:1004700004021A63134A136843F08243136002F5BF
:100480008062136843F4A023136002F5806213684E
:1004900043F0A043136047F23050FFF72BFF3320A7
:1004A000FFF752FF3220FFF74FFF0C20FFF74CFF02
:1004B0002820FFF749FF0120FFF746FF08BD00BFD6
:1004C00000380240000002402DE9F04F89B003AD32
:1004D00000240394049405940694079400944D4BCF
:1004E0001A6B42F080021A631A6B02F080020092CB
:1004F000009A01941A6B42F001021A631A6B02F01F
:1005000001020192019A02941A6B42F002021A63EC
:100510001B6B03F002030293029B4FF4404BCDF898
:100520000CB04FF00108CDF8108029463A4800F091
:1005300045FC4FF44079CDF80C90384F29463846A9
:1005400000F03CFC4FF4104ACDF80CA0344E294684
:10055000304600F033FC224659462F4800F01EFD7D
:1005600022464946384600F019FD2246514630469B
:1005700000F014FDCDF80C804FF488130493CDF8EF
:1005800014802946304600F019FC2246022106203C
:1005900000F0FEFA062000F00BFB0F2303934FF44C
:1005A00004130493CDF8148006942946304600F0D5
:1005B00005FC22460221062000F0EAFA062000F09F
:1005C000F7FA22460221072000F0E2FA072000F0A5
:1005D000EFFA22460221082000F0DAFA082000F0A3
:1005E000E7FA22460221092000F0D2FA092000F0A1
:1005F000DFFA336843F470533360F36823F47053C5
:10060000F36045F255533B60FF237B6109B0BDE8C1
:10061000F08F00BF00380240000802400004024092
:100620000000024000B583B000210191094B1A6B14
:1006300042F400121A631B6B03F400130193019B35
:100640000A46102000F0A4FA102000F0B1FA03B01E
:100650005DF804FB0038024008B5012000F0A4FC5E
:1006600008BD08B5022000F09FFC08BD08B50420B5
:1006700000F09AFC08BD08B5082000F095FC08BD04
:1006800010B582B0044600F029FA631E072B0AD881
:10069000DFE803F00421093C09090957364B1B68C0
:1006A000C31AC82B01D802B010BD334BD860334BEE
:1006B00093E803000090ADF80410090C8DF80610C3
:1006C0006846FFF785FD4FF0FF3382B269462C483C
:1006D00001F04AF9E7E7284B5B68C31AC82BE2D957
:1006E000254BD860274B93E803000090ADF8041029
:1006F000090C8DF806106846FFF76AFD4FF0FF33CE
:1007000082B269461E4801F02FF9CCE71A4B9B686C
:10071000C31AC82BC7D9184BD8601B4B93E80300EA
:100720000090ADF80410090C8DF806106846FFF72C
:100730004FFD4FF0FF3382B26946114801F014F9C2
:10074000B1E70D4BDB68C31AC82BACD90A4BD86094
:100750000E4B93E803000090ADF80410090C8DF8DF
:1007600006106846FFF734FD4FF0FF3382B269464A
:10077000034801F0F9F896E77800002068270008A0
:1007800090000020702700087827000880270008C4
:1007900000F01F00034B58639A6842F080429A6051
:1007A000704700BF0020014008B50E4B1B6813F0D6
:1007B000020F0DD00B4BDB6C9BB20B4A1278052A53
:1007C00007D00A4A13800520074B1870FFF7E0FF97
:1007D00008BD074A13800620034B1870FFF7D8FFA7
:1007E000F6E700BF00200140000000208C00002040
:1007F0008E000020134A536C43F480735364124BF1
:100800005A6822F440325A605A6842F480325A6080
:10081000A3F5407300225A6040F202419960DA6207
:100820001A6942F458221A615A6842F020025A604A
:10083000064A4FF4802111609A6842F001029A60E2
:10084000704700BF003802400023014000E100E093
:1008500072B6FEE710B588B0002401941C4B5A6CA8
:1008600042F010025A645A6C02F010020192019A8E
:1008700002941A6B42F001021A631B6B03F001032E
:100880000293029B03A903944C608C60CC600C61C2
:100890004FF4C063039302230493032306930723B7
:1008A00007930C4800F08AFA0B480C4B03604FF496
:1008B000E13343608460C46004610C23436184615C
:1008C000C46101F021F808B908B010BDFFF7C0FFFE
:1008D000003802400000024090000020001001405B
:1008E00010B594B007AC34220021204601F030F955
:1008F0000023029303930493059306930093194AEC
:10090000116C41F080511164126C02F0805200921F
:10091000009A019314490A6822F4404242F480424A
:100920000A600A6802F440420192019A0222079288
:1009300001220A9210220B920D93204600F0C8FC6F
:1009400060B90F2302930021039104910591069150
:1009500002A800F053FB18B914B010BDFFF778FFE0
:10096000FFF776FF003802400070004000B585B008
:1009700000F08EF8FFF7B4FFFFF7A6FDFFF752FE79
:10098000FFF768FFFFF736FF0520FFF701FFFFF7CE
:1009900063FD0120FFF7D8FC0BE0234B1B889BB2C3
:1009A000224A128892B29B1A002BB8BF5B421E2BC0
:1009B00022DC1F4B1B889BB21E4A128892B29B1AE4
:1009C000002BB8BF5B421E2BE7DD194A13889BB290
:1009D00018490B80128801AC92B21749204601F0E9
:1009E00095F82046FFF7F4FB4FF0FF3382B2214623
:1009F000124800F0B9FFD0E70B4A13889BB20B49AD
:100A00000B80128801AC92B20D49204601F07EF8AD
:100A10002046FFF7DDFB4FF0FF3382B22146074847
:100A200000F0A2FFC5E700BF8C0000208800002076
:100A30008E0000208A0000208827000890000020F7
:100A40009427000810B504460E4B1A784FF47A73B9
:100A5000B3FBF2F30C4A1068B0FBF3F000F0ACF813
:100A600068B90F2C01D901200AE0002221464FF07D
:100A7000FF3000F08DF8054B1C60002000E00120E5
:100A800010BD00BF0100002008000020040000206D
:100A900008B50B4B1A6842F400721A601A6842F4E7
:100AA00080621A601A6842F480721A60032000F0B3
:100AB0005DF80F20FFF7C6FF00F084FA002008BDA4
:100AC000003C0240034A1168034B1B780B4413603F
:100AD000704700BF3801002001000020014B18685A
:100AE000704700BF38010020002807DB00F01F021C
:100AF000400901239340024A42F82030704700BF6A
:100B000000E100E0002808DB0901C9B200F1604003
:100B100000F5614080F80013704700F00F000901F4
:100B2000C9B2014B1954704714ED00E000B500F054
:100B30000700C0F1070CBCF1040F28BF4FF0040CF4
:100B4000031D062B0FD9C31E4FF0FF3E0EFA0CF00B
:100B500021EA000199400EFA03FE22EA0E0241EA60
:100B600002005DF804FB0023EEE70000074AD368AB
:100B700023F4E0631B041B0C000200F4E060034359
:100B800043F0BF6343F40033D360704700ED00E0EF
:100B900010B50446054BD868C0F30220FFF7C6FF26
:100BA00001462046FFF7AEFF10BD00BF00ED00E09C
:100BB00008B5FFF799FF08BD0138B0F1807F0BD26F
:100BC0004FF0E0235861054AF02182F823100020FD
:100BD000986107221A6170470120704700ED00E01C
:100BE000F0B583B0044600230193724B1D68724B2D
:100BF000A3FB0535AD0A876D3E68C26D082393409F
:100C0000334210D003681A6812F0040F0BD01A6830
:100C100022F004021A60C26D08239340BB60436D4A
:100C200043F001034365E26D01239340334209D051
:100C30002268526912F0800F04D0BB60636D43F0EC
:100C400002036365E26D04239340334209D02268B6
:100C5000126812F0020F04D0BB60636D43F004030E
:100C60006365E26D10239340334224D022681268FA
:100C700012F0080F1FD0BB6023681A6812F4802F8F
:100C80000DD01B6813F4002F04D1236C9BB12046B8
:100C9000984710E0A36C73B1204698470BE01A68A0
:100CA00012F4807F03D11A6822F008021A60236CC4
:100CB0000BB120469847E26D20239340334254D035
:100CC0002268126812F0100F4FD0BB6094F83530D4
:100CD000052B0ED023681A6812F4802F33D01B68BE
:100CE00013F4002F2AD1636C002B3ED02046984786
:100CF0003BE02268136823F01603136022685369EF
:100D000023F080035361236CA3B12268136823F09E
:100D100008031360E26D3F239340BB60012384F816
:100D20003530002384F83430236D002B3FD020462B
:100D300098473CE0A36C002BE7D1EBE7E36BA3B152
:100D40002046984711E01A6812F4807F09D11A688A
:100D500022F010021A60012384F83530002384F851
:100D60003430E36B0BB120469847636DFBB1636D84
:100D700013F0010F17D0052384F83530226813686B
:100D800023F001031360019B01330193AB4204D8AC
:100D900023681B6813F0010FF5D1012384F8353067
:100DA000002384F83430E36C0BB12046984703B03D
:100DB000F0BD00BF08000020B5814E1B00230F2BA3
:100DC00000F2E38070B582B065E085684FEA430EBB
:100DD000032404FA0EF425EA0405CC6804FA0EF4A0
:100DE0002C438460446824EA02044A68C2F3001277
:100DF0009A40224342605CE0DC08083450F824202A
:100E000003F00705AD004FF00F0E0EFA05FE22EAC3
:100E10000E0E0A69AA4042EA0E0240F824205CE065
:100E2000062200E0002202FA0EF22A430234574D55
:100E300045F82420564A94686FEA0C0224EA0C050F
:100E40004E6816F4801F01D04CEA0405504CA56092
:100E5000E46802EA04054E6816F4001F01D04CEA6B
:100E600004054B4CE560646802EA04054E6816F41C
:100E7000003F01D04CEA0405454C656024682240DF
:100E80004D6815F4803F01D04CEA0402404C2260CA
:100E900001330F2B77D801229A400C6804EA020C28
:100EA00032EA0404F4D14C6804F00304013C012C40
:100EB0008BD94A6802F00302032A09D0C4685D0096
:100EC0000322AA4024EA02048A68AA402243C2609C
:100ED0004A6802F00302022A8ED004684FEA430EE9
:100EE000032202FA0EF224EA02044A6802F0030224
:100EF00002FA0EF2224302604A6812F4403FC7D061
:100F000000220192234A546C44F480445464526C8D
:100F100002F480420192019A9C08A51C1B4A52F8D7
:100F2000255003F0030E4FEA8E0E0F2202FA0EF246
:100F300025EA0205184A90423FF474AF02F5806238
:100F4000904216D002F58062904214D002F5806281
:100F5000904212D002F58062904210D002F5806279
:100F600090420ED002F5806290423FF459AF0722C2
:100F700059E7012257E7022255E7032253E70422EB
:100F800051E705224FE702B070BD704700380140BD
:100F9000003C014000380240000002400AB181617B
:100FA000704709048161704708B5054B5B690342CE
:100FB00000D108BD024B5861FFF762FBF9E700BFA3
:100FC000003C014082B0002100910B4B5A6C42F46E
:100FD00080425A645A6C02F480420092009A019155
:100FE0001A6C42F080521A641B6C03F08053019318
:100FF000019B02B0704700BF00380240002800F09B
:101000009B8070B50D4604464F4B1B6803F00F03E1
:101010008B4208D2CBB24C4A1370136803F00F0313
:101020008B4240F08B80236813F0020F17D013F02F
:10103000040F04D0454A936843F4E0539360236857
:1010400013F0080F04D0414A936843F4604393605F
:101050003E4A936823F0F003A1680B439360236832
:1010600013F0010F32D06368012B21D09A1E012AA0
:1010700025D9364A126812F0020F61D033498A68C6
:1010800022F0030213438B60FFF728FD06462F4B27
:101090009B6803F00C036268B3EB820F16D0FFF776
:1010A0001DFD801B41F288339842F0D9032042E0B5
:1010B000264A126812F4003FE0D101203BE0234AA7
:1010C000126812F0007FD9D1012034E01E4B1B685A
:1010D00003F00F03AB4207D9EAB21B4B1A701B682F
:1010E00003F00F03AB422DD1236813F0040F06D099
:1010F000164A936823F4E053E1680B439360236836
:1011000013F0080F07D0114A936823F46043216954
:1011100043EAC103936000F047F80C4B9B68C3F3AC
:1011200003130B4AD35CD8400A4B18600A4B18686B
:10113000FFF788FC002070BD012070470120FAE70E
:101140000120F8E70120F6E7003C024000380240A9
:10115000A82700080800002004000020014B1868A0
:10116000704700BF0800002008B5FFF7F7FF044BE9
:101170009B68C3F38223034AD35CD84008BD00BFF9
:1011800000380240A027000808B5FFF7E7FF044B2E
:101190009B68C3F34233034AD35CD84008BD00BF09
:1011A00000380240A027000808B5464B9B6803F0B2
:1011B0000C03082B05D00C2B43D0042B7FD14248C5
:1011C00019E0404B5A6802F03F025B6813F4800F4D
:1011D00012D03C4B5968C1F388113B480023A1FB56
:1011E0000001FFF74DF8374B5B68C3F30143013350
:1011F0005B00B0FBF3F008BD324B5868C0F38810B9
:101200004FEA401CBCEB000C6EEB0E0E4FEA8E1347
:1012100043EA9C634FEA8C11B1EB0C0163EB0E03C4
:10122000DB0043EA5173C90011EB000C43F10003EA
:10123000990200234FEA8C2041EA9C51FFF720F8E5
:10124000D1E7204B5A6802F03F025B6813F4800F2D
:1012500010D01C4B5968C1F388111B480023A1FB17
:101260000001FFF70DF8174B5B68C3F30273B0FB87
:10127000F3F0C0E7134B5868C0F388104FEA401CE6
:10128000BCEB000C6EEB0E0E4FEA8E1343EA9C6330
:101290004FEA8C11B1EB0C0163EB0E03DB0043EA68
:1012A0005173C90011EB000C43F1000399020023B4
:1012B0004FEA8C2041EA9C51FEF7E2FFD3E7034856
:1012C00099E700BF0038024040787D010024F40017
:1012D000002800F0018270B582B00446036813F064
:1012E000010F41D0994B9B6803F00C03042B32D0C3
:1012F000964B9B6803F00C03082B27D0934B9B68FD
:1013000003F00C030C2B59D06368B3F5803F5BD01E
:10131000B3F5A02F5ED08D4B1A6822F480321A608C
:101320001A6822F480221A606368002B5CD0FFF7F1
:10133000D5FB0546854B1B6813F4003F14D1FFF71E
:10134000CDFB401B6428F5D90320CCE17F4B5B68C3
:1013500013F4800FD2D07D4B1B6813F4003F03D0F1
:101360006368002B00F0BA81236813F0020F60D08D
:10137000764B9B6813F00C0F4AD0744B9B6803F0BC
:101380000C03082B3FD0714B9B6803F00C030C2B14
:1013900069D0E368002B75D06D4B01221A60FFF70E
:1013A0009DFB0546694B1B6813F0020F61D1FFF7E7
:1013B00095FB401B0228F5D9032094E1634B5B6841
:1013C00013F4800FA0D0C6E7604A136843F480335B
:1013D0001360A9E75D4B1A6842F480221A601A680C
:1013E00042F480321A609FE7FFF778FB0546574BBF
:1013F0001B6813F4003FB7D0FFF770FB401B642855
:10140000F5D903206FE1514B5B6813F4800FBAD11B
:101410004E4B1B6813F0020F03D0E368012B40F022
:101420005F814A4A136823F0F803216943EAC10344
:101430001360236813F0080F49D06369002B33D081
:10144000434B0122C3F8802EFFF748FB05463F4B74
:101450005B6F13F0020F3AD1FFF740FB401B0228ED
:10146000F5D903203FE1394B5B6813F4800F90D12D
:10147000CEE7364A136823F0F803216943EAC10333
:101480001360D6E7324B00221A60FFF727FB0546B0
:101490002E4B1B6813F0020FCBD0FFF71FFB401B36
:1014A0000228F5D903201EE1294B0022C3F8802E23
:1014B000FFF714FB0546254B5B6F13F0020F06D0B8
:1014C000FFF70CFB401B0228F5D903200BE1236832
:1014D00013F0040F76D01D4B1B6C13F0805F33D1DB
:1014E00000230193194B1A6C42F080521A641B6C52
:1014F00003F080530193019B0125164B1B6813F4E5
:10150000807F29D0A368012B3AD0052B3ED00F4B0A
:101510001A6F22F001021A671A6F22F004021A678A
:10152000A368002B3CD0FFF7D9FA0646074B1B6F88
:1015300013F0020F45D1FFF7D1FA801B41F2883337
:101540009842F3D90320CEE00025D6E700380240C8
:1015500000004742007000406B4A136843F48073F8
:101560001360FFF7BBFA0646674B1B6813F4807FD6
:10157000C8D1FFF7B3FA801B0228F5D90320B2E0E7
:10158000624A136F43F001031367C9E75F4B1A6F99
:1015900042F004021A671A6F42F001021A67BFE7AD
:1015A000FFF79CFA0646594B1B6F13F0020F08D049
:1015B000FFF794FA801B41F288339842F3D9032055
:1015C00091E0EDB9A369002B00F08C804F4A92683E
:1015D00002F00C02082A54D0022B17D04C4B0022E8
:1015E0001A66FFF77BFA0446484B1B6813F0007F2E
:1015F00045D0FFF773FA001B0228F5D9032072E0EB
:10160000424A136C23F080531364DBE7404B002203
:101610001A66FFF763FA05463C4B1B6813F0007F20
:1016200006D0FFF75BFA401B0228F5D903205AE0E9
:10163000E369226A1343626A43EA8213A26A520888
:10164000013A43EA0243E26A43EA0263226B43EA55
:1016500002732E4A53602E4B01221A66FFF73EFAA0
:1016600004462A4B1B6813F0007F06D1FFF736FAB9
:10167000001B0228F5D9032035E0002033E00020CC
:1016800031E0012B31D0214B5B6803F48001E2692A
:1016900091422CD103F03F02216A8A4229D1616A2A
:1016A00047F6C0721A40B2EB811F24D103F44031D7
:1016B000A26A5208013AB1EB024F1ED103F07062E8
:1016C000E16AB2EB016F1AD103F0E043226BB3EB96
:1016D000027F16D1002006E001207047012002E0C1
:1016E000012000E0002002B070BD0120FBE70120D6
:1016F000F9E70120F7E70120F5E70120F3E70120F2
:10170000F1E70120EFE700BF007000400038024021
:1017100000004742026802F10C0353E8003F23F443
:1017200090730C3242E800310029F3D1026802F1D3
:10173000140353E8003F23F00103143242E8003160
:101740000029F3D1036B012B05D0202380F8423010
:10175000002303637047026802F10C0353E8003F63
:1017600023F010030C3242E800310029F3D1ECE7FA
:1017700010B504460268136923F44053C1680B4353
:101780001361836802691A4343691A43C3691A43A0
:101790000168CB6823F4164323F00C031343CB609A
:1017A0000268536923F4407381690B4353610368F2
:1017B000314A934206D002F58062934202D0FFF78D
:1017C000D3FC01E0FFF7E0FCE369B3F5004F29D05B
:1017D0000021031849411B1841F10001C90041EAE9
:1017E0005371DB00181863684FEA83024FEA937362
:1017F00041F10001FEF744FD204AA2FB00314909F6
:10180000642303FB11031B013233A2FB03235B0997
:1018100003F0F00202EB011203F00F0321681344FE
:101820008B6010BD0023021843EB0301121841F135
:101830000001C90041EA5271D200101841F10001C3
:10184000626892185B41FEF71BFD0C4AA2FB003157
:101850004909642303FB1103DB003233A2FB03239A
:101860005B095A0002F4F87202EB011203F007035D
:10187000216813448B60D4E7001001401F85EB51B1
:101880002DE9F04383B005460E4617469946DDF82C
:1018900028802B681C6836EA04040CBF012400244D
:1018A000BC4228D1B8F1FF3FF3D0FFF717F9A0EB06
:1018B0000900404523D8B8F1000F22D02B68DA6820
:1018C00012F0040FE5D0802EE3D0402EE1D01A684C
:1018D00012F0080FDDD0002401941A6801925B68B1
:1018E0000193019B2846FFF715FF08236B6485F8D9
:1018F0004040012000E0002003B0BDE8F083032059
:10190000FAE70320F8E7704760B310B5044690F893
:10191000413013B3242384F841302268D36823F480
:101920000053D3602046FFF723FF2268136923F496
:10193000904313612268536923F02A03536122689C
:10194000D36843F40053D36000206064202384F8FC
:10195000413084F84230606310BD80F84030FFF7BA
:10196000D2FFD7E7012070472DE9F04182B01E4633
:1019700090F84130202B56D104460D469046002960
:1019800055D00AB901204FE000234364212380F899
:101990004130FFF7A3F80746A4F82480A4F8268076
:1019A000A368B3F5805F02D04FF0000814E023690C
:1019B0002BB34FF000080FE0202384F841300320C0
:1019C00032E038F8023B2268C3F308035360E28C2C
:1019D00092B2013A92B2E284E38C9BB293B1009648
:1019E0003B46002280212046FFF74AFF0028E3D132
:1019F000002DE6D015F8012B23685A60E7E7A846CA
:101A00000025E9E700963B46002240212046FFF7EB
:101A100037FF18B9202384F8413005E0202384F8EB
:101A20004130032000E0022002B0BDE8F081012037
:101A3000FAE7FEE7FEE7FEE7FEE7FEE770477047DE
:101A4000704708B5FFF73EF808BD000008B502482A
:101A5000FFF7C6F808BD00BFD800002010B5034648
:101A60000C4A0D490D48006840B10C480068034419
:101A7000521A934206D8094A136010BD0748084C11
:101A80000460F2E700F06CF80C2303604FF0FF30C5
:101A9000F3E700BF00000220000400003C0100202A
:101AA00088020020034AD2F8883043F47003C2F859
:101AB0008830704700ED00E0DFF834D0FFF7F2FF28
:101AC0000C480D490D4A002302E0D458C450043399
:101AD000C4188C42F9D30A4A0A4C002301E013606F
:101AE0000432A242FBD300F041F8FEF73FFF7047FB
:101AF00000000220000000205C000020FC270008FD
:101B00005C00002088020020FEE700000EB410B543
:101B10009DB01FAB029006906FF000410A480791FC
:101B200004910A4953F8042B0591002402A9006886
:101B300001931B9400F098F9029B1C701DB0BDE846
:101B4000104003B0704700BF0C0000200802FFFFE8
:101B500002440346934200D1704703F8011BF9E7A2
:101B6000014B1868704700BF0C00002070B50D4B8A
:101B70000D4D5B1B9C100026A64209D100F0E8FD2C
:101B80000A4D0B4B5B1B9C100026A64205D170BD75
:101B900055F8043B98470136EEE755F8043B984763
:101BA0000136F2E7F4270008F4270008F4270008BC
:101BB000F82700087047704738B50546002941D01E
:101BC00051F8043C0C1F002BB8BFE41800F0E0F8FB
:101BD0001D4A136833B9636014602846BDE8384075
:101BE00000F0DCB8A34208D9206821188B4201BF5D
:101BF00019685B6809182160EDE71A465B680BB14C
:101C0000A342FAD911685018A0420BD120680144B0
:101C1000501883421160E0D118685B685360084433
:101C20001060DAE702D90C232B60D6E72068211870
:101C30008B4204BF19685B68636004BF09182160A8
:101C40005460CAE738BD00BF8402002070B50F4E53
:101C50000C463168054611B900F0AAFB30602146F8
:101C6000284600F0A5FB431C03D14FF0FF3420466B
:101C700070BDC41C24F00304A042F8D0211A2846E9
:101C800000F096FB0130F2D1EFE700BF80020020A8
:101C90002DE9F843CD1C25F0030508350C2D38BF80
:101CA0000C25002D064601DBA94204D90C23336024
:101CB0000020BDE8F883DFF8D48000F069F8D8F898
:101CC00000301C4644BB29463046FFF7BFFF431C8B
:101CD000044658D1D8F800402746002F43D1002CA5
:101CE0004BD023683946304604EB030900F060FB13
:101CF000814542D121686D1A29463046FFF7A6FF7B
:101D000001303AD023682B442360D8F800305A6859
:101D100062BBC8F800700FE02268521B20D40B2A67
:101D200017D96119A342256018BF5960636808BFBD
:101D3000C8F8001062514B60304600F02FF804F1F3
:101D40000B00231D20F00700C21A1CBF1B1AA35052
:101D5000AFE76268A3420CBFC8F800205A60EBE707
:101D600023466468AEE73C467F68B6E71A465B6880
:101D7000A342FBD100235360DEE70C2333603046DF
:101D800000F00CF894E70560D6E700BF840200205D
:101D90000148FFF70FBF00BF7C0200200148FFF79A
:101DA0000ABF00BF7C0200202DE9F0478E681F4665
:101DB000BE4282460C469046334653D8B1F90C00D9
:101DC00010F4906F2BD065692368096905EB450510
:101DD000A3EB010905EBD5757B1C6D104B44AB42A1
:101DE0002A4684BF1D462A46430527D5114650463C
:101DF000FFF74EFF064658B321694A4600F0E8FA5D
:101E0000A38923F4906343F08003A3812661656175
:101E10004E44A5EB09052660A5603E463B461F469D
:101E200020683A46414600F0A9FAA3689B1BA360CC
:101E300023683B4423600020BDE8F087504600F053
:101E4000D5FA06460028E1D121695046FFF7B4FED5
:101E50000C23CAF80030A38943F04003A3814FF05C
:101E6000FF30E9E73E46DBE72DE9F04F98468B89E6
:101E70001B069DB007460D46144610D50B6973B975
:101E80004021FFF705FF2860286130B90C233B6033
:101E90004FF0FF301DB0BDE8F08F40236B61002391
:101EA000099320238DF82930CDF80C803023DFF8FA
:101EB0009C818DF82A304FF0010923469A4613F889
:101EC000012B0AB1252AF9D1BAEB040B0BD05B46E2
:101ED000224629463846FFF767FF013000F0A78009
:101EE000099A5A4409929AF80030002B00F09F801A
:101EF00000234FF0FF32CDE905230AF1010A0493D4
:101F000007938DF853301A935446052214F8011B99
:101F10004E48FEF765F9049AD8B9D00644BF20238D
:101F20008DF85330110744BF2B238DF853309AF8A6
:101F300000302A2B15D0079A544600204FF00A0C87
:101F4000214611F8013B303B092B4BD9B0B1079228
:101F500014E0A0EB080309FA03F313430493A24629
:101F6000D2E7039B191D1B680391002BBBBF5B428B
:101F700042F0020207930793B8BF049223782E2BF6
:101F80000AD163782A2B32D1039B1A1D1B68039256
:101F900043EAE37302340593DFF8C0A021780322FB
:101FA0005046FEF71DF938B1049BA0EB0A00402211
:101FB000824013430134049314F8011B24488DF824
:101FC00028100622FEF70CF9002836D0214B1BBB47
:101FD000039B073323F0070308330393099B334420
:101FE00009936AE70CFB02320C460120A8E70023A4
:101FF0000134059319464FF00A0C204610F8012BC6
:10200000303A092A03D9002BC6D00591C4E70CFB4E
:10201000012104460123F0E703AB00932A460E4B4F
:1020200004A93846AFF30080421C0646D6D1AB89DE
:102030005B063FF52DAF09982CE703AB00932A46CA
:10204000054B04A9384600F079F8EDE7B8270008F9
:10205000C227000800000000A91D0008BE270008D4
:102060002DE9F047164698468A680B69DDF82090FE
:102070009342B8BF1346336091F8432007460C469D
:102080000AB1013333602368990642BF33680233D3
:102090003360256815F0060506D104F1190AE368D6
:1020A00032689B1AAB4226DC94F843302268003B2E
:1020B00018BF012392062BD404F14302414638464F
:1020C000C84701301ED02368226903F00603042BA1
:1020D00002BFE5683368ED1AA3680CBF25EAE57511
:1020E00000259342C4BF9B1AED1800261A34B5424E
:1020F0001AD1002008E00123524641463846C8471D
:10210000013003D14FF0FF30BDE8F0870135C6E75D
:10211000E1185A1C302081F84300224494F84510FD
:1021200082F843100233C7E701232246414638466E
:10213000C8470130E6D00136D9E700002DE9FF4756
:102140000F7E0C9E782F914680460C469A4601F1F0
:10215000430207D8622F0AD8002F00F0D280582FF0
:1021600000F0B78004F1420684F842703AE0A7F12B
:102170006303152BF6D801A151F823F0D5210008EF
:10218000E921000865210008652100086521000893
:1021900065210008E9210008652100086521000883
:1021A0006521000865210008E922000813220008C3
:1021B0009F22000865210008652100080B23000804
:1021C0006521000813220008652100086521000828
:1021D000A722000833681A1D1B68326004F142060A
:1021E00084F8423001239DE033682068191D316076
:1021F000060601D51D6803E04506FBD5B3F900507E
:10220000002D03DA2D236D4284F8433059480A2308
:1022100010E021683368080653F8045B02D44906CD
:1022200048BFADB26F2F5348336059D10823002106
:1022300084F843106668A660002E05DB21682E43F3
:1022400021F0040121604DD01646B5FBF3F103FBEC
:102250001157C75D06F8017D2F46BB420D46F4D9E4
:10226000082B0BD12368DF0708D5236961689942E1
:10227000DEBF302306F8013C06F1FF36921B2261D7
:10228000CDF800A04B4603AA21464046FFF7E8FEE2
:1022900001304CD14FF0FF3004B0BDE8F087236827
:1022A00043F0200323603448782784F8457023687E
:1022B00031681F0651F8045B02D45F0648BFADB217
:1022C0003160D90744BF43F0200323601DB11023C0
:1022D000ADE72848E9E7236823F020032360F6E709
:1022E0000A23A4E71646BBE7336825686169181D11
:1022F00030602E061B6801D5196002E06806FBD528
:102300001980002323611646BAE733681A1D32602C
:102310001E68626800213046FDF762FF08B1801B2D
:10232000606063682361002384F84330A8E7236971
:10233000324649464046D0470130ABD023689B0720
:1023400013D4E068039B9842B8BF1846A4E7012362
:10235000324649464046D04701309BD00135E368BC
:1023600003995B1AAB42F2DCEBE7002504F1190696
:10237000F5E700BFC9270008DA270008884210B532
:1023800001EB020402D98442234607D8431EA1422E
:1023900007D011F8012B03F8012FF8E7024482421D
:1023A00000D110BD13F8011D02F8011DF7E7000070
:1023B00038B5064D0023044608462B60FFF74EFB58
:1023C000431C02D12B6803B1236038BD7802002082
:1023D0000A44914200F1FF3300D1704710B511F863
:1023E000014B03F8014F9142F9D110BD2DE9F041A5
:1023F000074614460D4621B9BDE8F0411146FFF7E6
:1024000047BC2AB9FFF7D8FB25462846BDE8F0812E
:1024100000F01AF88442064602D8B4EB500FF4D804
:1024200021463846FFF734FC804608B94546ECE7BC
:10243000B4422246294628BF3246FFF7C9FF294643
:102440003846FFF7B9FBF1E751F8043C181F002BA1
:10245000BCBF0B58C01870472DE9F047089D0F46C8
:1024600004468C46002B48D18A42164661D9B2FAFE
:1024700082F34BB1C3F1200201FA03FC20FA02F20D
:102480009E4042EA0C0C9C404FEA164EB7B2BCFB91
:10249000FEF1220C0EFB11CC42EA0C4201FB07F0CC
:1024A000904209D9B21801F1FF3C80F0EE809042D1
:1024B00040F2EB8002393244121AA4B2B2FBFEF0B1
:1024C0000EFB102244EA024400FB07F7A74209D999
:1024D000341900F1FF3280F0DA80A74240F2D78051
:1024E0003444023840EA0140E41B00211DB1DC40C5
:1024F0000023C5E90043BDE8F0878B4206D90DB142
:10250000C5E9000100210846BDE8F087B3FA83F170
:10251000002948D1BB4202D3824200F20781841ACB
:1025200067EB030201209446002DE4D0C5E9004C7E
:10253000E1E7002A00F09280B2FA82F3002B40F02B
:10254000A8808A1A4FEA164E1FFA86FC0121200C39
:10255000B2FBFEF70EFB172240EA02420CFB07F02B
:10256000904207D9B21807F1FF3802D2904200F228
:10257000E2804746121AA4B2B2FBFEF00EFB102214
:1025800044EA02440CFB00FCA44507D9341900F1CD
:10259000FF3202D2A44500F2CB801046A4EB0C041B
:1025A00040EA0740A2E7C1F120068B4022FA06FC70
:1025B0004CEA030C07FA01F420FA06F3F7404FEA5D
:1025C0001C49234300FA01F81FFA8CFEB7FBF9F00F
:1025D0001C0C09FB107744EA074400FB0EF7A742E6
:1025E00002FA01F20AD91CEB040400F1FF3A80F070
:1025F0009B80A74240F2988002386444E41B9FB25B
:10260000B4FBF9F309FB134447EA044403FB0EFE51
:10261000A64509D91CEB040403F1FF3780F0828042
:10262000A6457FD9023B644443EA0040A4EB0E0474
:10263000A0FB02E7BC427346B94663D360D05DB1EC
:10264000B8EB030264EB090404FA06F622FA01F37C
:102650001E43CC40C5E9006400214CE762084808ED
:1026600042EAC1710B0C43EA00438AB242EA0342D8
:10267000B3FBF6F1E407B4463746B6461F23B0FB7A
:10268000F6F0D21B41EA004161E7614614E71046CB
:1026900028E7C3F1200120FA01F29E4027FA01F158
:1026A0009F403A434FEA164E1FFA86FCB1FBFEF7F5
:1026B0000EFB1710110C41EA004107FB0CF888458E
:1026C00004FA03F43AD9711807F1FF3001D28845B2
:1026D0001FD8A1EB0801B1FBFEF808FB0CF70EFBBD
:1026E000181192B242EA0142BA422FD2B21808F14E
:1026F000FF31C6D2BA42C4D2A8F102013244C0E7C7
:10270000F0459CD2BEEB020367EB0C070138B946DB
:1027100095E7A6EB08084144B81EB1FBFEF808FB9C
:102720000CF7DCE73B467FE7504667E70846FBE6E9
:102730003444023832E7023F32441BE7A1EB080180
:102740003846B1FBFEF808FB0CF7C8E7414698E7AE
:10275000F8B500BFF8BC08BC9E467047F8B500BF8E
:08276000F8BC08BC9E4670475E
:1027680042544E300D0A000042544E310D0A00000A
:1027780042544E320D0A000042544E330D0A0000F6
:10278800504F5430202534750D0A0000504F5431F5
:10279800202534750D0A0000000000000102030422
:1027A80000000000000000000102030406070809F9
:1027B800232D302B2000686C4C0065666745464722
:1027C80000303132333435363738394142434445A5
:1027D8004600303132333435363738396162636414
:0427E8006566000022
:0827EC00E4D9FF7F01000000A9
:0427F400D9020008FE
:0427F800B50200081E
:1027FC0005010000100000000024F400100000206F
:10280C000000000040010020A80100201002002060
:10281C0000000000000000000000000000000000AC
:10282C00000000000000000000000000000000009C
:10283C00000000000000000000000000000000008C
:0C284C0000000000000000000000000080
:0400000508001AB91C
:00000001FF
