:020000040800F2
:1000000000000220FD110008C1110008C311000802
:10001000C5110008C7110008C91100080000000040
:10002000000000000000000000000000CB110008EC
:10003000CD11000800000000CF110008D111000808
:100040004D1200084D1200084D1200084D12000814
:100050004D1200084D1200084D1200084D12000804
:100060004D1200084D1200084D1200084D120008F4
:100070004D1200084D1200084D1200084D120008E4
:10008000D91100084D1200084D1200084D12000849
:100090004D1200084D1200084D1200084D120008C4
:1000A0004D1200084D1200084D1200084D120008B4
:1000B0004D1200084D1200084D1200084D120008A4
:1000C0004D1200084D1200084D1200084D12000894
:1000D0004D1200084D1200084D1200084D12000884
:1000E0004D1200084D1200084D1200084D12000874
:1000F0004D1200084D1200084D1200084D12000864
:100100004D1200084D1200084D1200084D12000853
:100110004D1200084D1200084D1200084D12000843
:100120004D1200084D1200084D1200084D12000833
:100130004D12000800000000000000004D120008F1
:100140004D1200084D1200084D1200084D12000813
:100150004D1200084D1200084D1200084D12000803
:100160004D1200084D1200084D1200084D120008F3
:100170004D1200084D1200084D120008000000004A
:10018000000000004D120008000000000000000008
:100190004D12000800000000000000004D12000891
:1001A0000000000000000000000000004D120008E8
:1001B0004D1200084D1200084D1200084D120008A3
:0401C0004D120008D4
:1001C40053B94AB9002908BF00281CBF4FF0FF31BA
:1001D4004FF0FF3000F00CB8ADF1080C6DE904CE1F
:1001E40001F060F8DDF804E0DDE9022304B07047B3
:1001F400704700BF10B5054C237833B9044B13B1D5
:100204000448AFF300800123237010BD0C000020CC
:1002140000000000A015000808B5034B1BB10349FA
:100224000348AFF3008008BD000000001000002068
:10023400A015000882B000EB40000023019304E005
:1002440000BF00BF019B01330193019B8342F7D39D
:1002540002B0704710B51420FFF7ECFF094CA369F6
:1002640043F40043A3611420FFF7E4FFA36943F0C0
:100274000043A3611420FFF7DDFFA36943F40043A7
:10028400A36110BD0008024010B504463F4A9369BB
:1002940043F08043936110F0800F45D13C4A936949
:1002A40043F00043936114F0400F44D0384A9369FB
:1002B40043F48053936114F0200F42D0354A93697C
:1002C40043F40073936114F0100F40D0314A9369E2
:1002D40043F480739361FFF7BDFF14F0080F3CD023
:1002E4002B4A936943F40043936114F0040F3AD00A
:1002F400274A936943F48053936114F0020F38D072
:10030400244A936943F40073936114F0010F36D0C7
:10031400204A936943F480739361FFF79BFF40F68F
:10032400B830FFF787FF10BDA2F50062936943F46C
:1003340000439361B7E7164A936943F0805393618E
:10034400B9E7144A936943F000739361BBE7114A18
:10035400936943F080739361BDE70D4A936943F059
:1003640000439361C1E70A4A936943F08053936160
:10037400C3E7084A936943F000739361C5E7054AEC
:10038400936943F080739361C7E700BF000802409C
:10039400000002400004024008B5194B1A6B42F0F9
:1003A40001021A631A6B42F002021A631A6B42F0DA
:1003B40004021A63134A136843F08243136002F57C
:1003C4008062136843F4A023136002F5806213680B
:1003D40043F0A043136047F23050FFF72BFF332064
:1003E400FFF752FF3220FFF74FFF0C20FFF74CFFBF
:1003F4002820FFF749FF0120FFF746FF08BD00BF93
:1004040000380240000002402DE9F04F89B003ADEE
:100414000024039404940594069407940094274BB1
:100424001A6B42F080021A631A6B02F08002009287
:10043400009A01941A6B42F001021A631A6B02F0DB
:1004440001020192019A02941A6B42F002021A63A9
:100454001B6B03F002030293029B4FF4404BCDF855
:100464000CB001230493DFF85CA02946504600F049
:100474002DFA4FF44079CDF80C90DFF84C802946E2
:10048400404600F023FA4FF4104703970C4E2946D8
:10049400304600F01BFA22465946504600F006FB4F
:1004A40022464946404600F001FB22463946304682
:1004B40000F0FCFA09B0BDE8F08F00BF003802403C
:1004C40000000240000802400004024072B6FEE749
:1004D40010B594B007AC34220021204600F0B5FEDC
:1004E4000023029303930493059306930093194AFC
:1004F400116C41F080511164126C02F08052009230
:10050400009A019314490A6822F4404242F480425A
:100514000A600A6802F440420192019A0222079298
:1005240001220A9210220B920D93204600F024FC23
:1005340060B90F2302930021039104910591069160
:1005440002A800F0D5FA18B914B010BDFFF7BEFF29
:10055400FFF7BCFF003802400070004008B500F00F
:1005640031F8FFF7B5FFFFF74FFFFFF715FF012045
:10057400FFF78AFEFEE7000010B504460E4B1A781A
:100584004FF47A73B3FBF2F30C4A1068B0FBF3F048
:1005940000F09AF868B90F2C01D901200AE0002272
:1005A40021464FF0FF3000F07FF8054B1C6000201F
:1005B40000E0012010BD00BF000000200800002062
:1005C4000400002008B50B4B1A6842F400721A604C
:1005D4001A6842F480621A601A6842F480721A60DF
:1005E400032000F04FF80F20FFF7C6FF00F064FA75
:1005F400002008BD003C0240034A1168034B1B78ED
:100604000B441360704700BF8800002000000020E6
:10061400014B1868704700BF88000020002808DBE1
:100624000901C9B200F1604000F5614080F800138F
:10063400704700F00F000901C9B2014B195470470B
:1006440014ED00E000B500F00700C0F1070CBCF1A8
:10065400040F28BF4FF0040C031D062B0FD9C31E33
:100664004FF0FF3E0EFA0CF021EA000199400EFA19
:1006740003FE22EA0E0241EA02005DF804FB0023B5
:10068400EEE70000074AD36823F4E0631B041B0C65
:10069400000200F4E060034343F0BF6343F400331B
:1006A400D360704700ED00E010B50446054BD868F0
:1006B400C0F30220FFF7C6FF01462046FFF7AEFF56
:1006C40010BD00BF00ED00E00138B0F1807F0BD217
:1006D4004FF0E0235861054AF02182F823100020EE
:1006E400986107221A6170470120704700ED00E00D
:1006F400F0B583B0044600230193724B1D68724B1E
:10070400A3FB0535AD0A876D3E68C26D082393408F
:10071400334210D003681A6812F0040F0BD01A6821
:1007240022F004021A60C26D08239340BB60436D3B
:1007340043F001034365E26D01239340334209D042
:100744002268526912F0800F04D0BB60636D43F0DD
:1007540002036365E26D04239340334209D02268A7
:10076400126812F0020F04D0BB60636D43F00403FF
:100774006365E26D10239340334224D022681268EB
:1007840012F0080F1FD0BB6023681A6812F4802F80
:100794000DD01B6813F4002F04D1236C9BB12046A9
:1007A400984710E0A36C73B1204698470BE01A6891
:1007B40012F4807F03D11A6822F008021A60236CB5
:1007C4000BB120469847E26D20239340334254D026
:1007D4002268126812F0100F4FD0BB6094F83530C5
:1007E400052B0ED023681A6812F4802F33D01B68AF
:1007F40013F4002F2AD1636C002B3ED02046984777
:100804003BE02268136823F01603136022685369DF
:1008140023F080035361236CA3B12268136823F08F
:1008240008031360E26D3F239340BB60012384F807
:100834003530002384F83430236D002B3FD020461C
:1008440098473CE0A36C002BE7D1EBE7E36BA3B143
:100854002046984711E01A6812F4807F09D11A687B
:1008640022F010021A60012384F83530002384F842
:100874003430E36B0BB120469847636DFBB1636D75
:1008840013F0010F17D0052384F83530226813685C
:1008940023F001031360019B01330193AB4204D89D
:1008A40023681B6813F0010FF5D1012384F8353058
:1008B400002384F83430E36C0BB12046984703B02E
:1008C400F0BD00BF08000020B5814E1B00230F2B94
:1008D40000F2E38070B582B065E085684FEA430EAC
:1008E400032404FA0EF425EA0405CC6804FA0EF491
:1008F4002C438460446824EA02044A68C2F3001268
:100904009A40224342605CE0DC08083450F824201A
:1009140003F00705AD004FF00F0E0EFA05FE22EAB4
:100924000E0E0A69AA4042EA0E0240F824205CE056
:10093400062200E0002202FA0EF22A430234574D46
:1009440045F82420564A94686FEA0C0224EA0C0500
:100954004E6816F4801F01D04CEA0405504CA56083
:10096400E46802EA04054E6816F4001F01D04CEA5C
:1009740004054B4CE560646802EA04054E6816F40D
:10098400003F01D04CEA0405454C656024682240D0
:100994004D6815F4803F01D04CEA0402404C2260BB
:1009A40001330F2B77D801229A400C6804EA020C19
:1009B40032EA0404F4D14C6804F00304013C012C31
:1009C4008BD94A6802F00302032A09D0C4685D0087
:1009D4000322AA4024EA02048A68AA402243C2608D
:1009E4004A6802F00302022A8ED004684FEA430EDA
:1009F400032202FA0EF224EA02044A6802F0030215
:100A040002FA0EF2224302604A6812F4403FC7D051
:100A140000220192234A546C44F480445464526C7E
:100A240002F480420192019A9C08A51C1B4A52F8C8
:100A3400255003F0030E4FEA8E0E0F2202FA0EF237
:100A440025EA0205184A90423FF474AF02F5806229
:100A5400904216D002F58062904214D002F5806272
:100A6400904212D002F58062904210D002F580626A
:100A740090420ED002F5806290423FF459AF0722B3
:100A840059E7012257E7022255E7032253E70422DC
:100A940051E705224FE702B070BD704700380140AE
:100AA400003C014000380240000002400AB181616C
:100AB400704709048161704782B0002100910B4B9B
:100AC4005A6C42F480425A645A6C02F48042009296
:100AD400009A01911A6C42F080521A641B6C03F064
:100AE40080530193019B02B0704700BF003802405D
:100AF400002800F09B8070B50D4604464F4B1B68E0
:100B040003F00F038B4208D2CBB24C4A1370136824
:100B140003F00F038B4240F08B80236813F0020F25
:100B240017D013F0040F04D0454A936843F4E053FC
:100B34009360236813F0080F04D0414A936843F488
:100B4400604393603E4A936823F0F003A1680B432B
:100B54009360236813F0010F32D06368012B21D016
:100B64009A1E012A25D9364A126812F0020F61D062
:100B740033498A6822F0030213438B60FFF748FD70
:100B840006462F4B9B6803F00C036268B3EB820F9D
:100B940016D0FFF73DFD801B41F288339842F0D90F
:100BA400032042E0264A126812F4003FE0D10120FB
:100BB4003BE0234A126812F0007FD9D1012034E0CF
:100BC4001E4B1B6803F00F03AB4207D9EAB21B4B61
:100BD4001A701B6803F00F03AB422DD1236813F086
:100BE400040F06D0164A936823F4E053E1680B43DC
:100BF4009360236813F0080F07D0114A936823F415
:100C04006043216943EAC103936000F021F80C4B6F
:100C14009B68C3F303130B4AD35CD8400A4B186098
:100C24000A4B1868FFF7A8FC002070BD012070472C
:100C34000120FAE70120F8E70120F6E7003C024032
:100C440000380240B8150008080000200400002005
:100C540008B5464B9B6803F00C03082B05D00C2BFE
:100C640043D0042B7FD1424819E0404B5A6802F02C
:100C74003F025B6813F4800F12D03C4B5968C1F3F8
:100C840088113B480023A1FB0001FFF799FA374B79
:100C94005B68C3F3014301335B00B0FBF3F008BDB1
:100CA400324B5868C0F388104FEA401CBCEB000C70
:100CB4006EEB0E0E4FEA8E1343EA9C634FEA8C11DF
:100CC400B1EB0C0163EB0E03DB0043EA5173C90083
:100CD40011EB000C43F10003990200234FEA8C202E
:100CE40041EA9C51FFF76CFAD1E7204B5A6802F0B5
:100CF4003F025B6813F4800F10D01C4B5968C1F39A
:100D040088111B480023A1FB0001FFF759FA174B78
:100D14005B68C3F30273B0FBF3F0C0E7134B58688E
:100D2400C0F388104FEA401CBCEB000C6EEB0E0EB7
:100D34004FEA8E1343EA9C634FEA8C11B1EB0C012A
:100D440063EB0E03DB0043EA5173C90011EB000CA3
:100D540043F10003990200234FEA8C2041EA9C519D
:100D6400FFF72EFAD3E7034899E700BF00380240A3
:100D740040787D010024F400002800F0018270B561
:100D840082B00446036813F0010F41D0994B9B686D
:100D940003F00C03042B32D0964B9B6803F00C0336
:100DA400082B27D0934B9B6803F00C030C2B59D0D2
:100DB4006368B3F5803F5BD0B3F5A02F5ED08D4B55
:100DC4001A6822F480321A601A6822F480221A60A7
:100DD4006368002B5CD0FFF71BFC0546854B1B6842
:100DE40013F4003F14D1FFF713FC401B6428F5D91A
:100DF4000320CCE17F4B5B6813F4800FD2D07D4B92
:100E04001B6813F4003F03D06368002B00F0BA8121
:100E1400236813F0020F60D0764B9B6813F00C0F1D
:100E24004AD0744B9B6803F00C03082B3FD0714BE2
:100E34009B6803F00C030C2B69D0E368002B75D07E
:100E44006D4B01221A60FFF7E3FB0546694B1B68F3
:100E540013F0020F61D1FFF7DBFB401B0228F5D929
:100E6400032094E1634B5B6813F4800FA0D0C6E7C2
:100E7400604A136843F480331360A9E75D4B1A6832
:100E840042F480221A601A6842F480321A609FE7A2
:100E9400FFF7BEFB0546574B1B6813F4003FB7D062
:100EA400FFF7B6FB401B6428F5D903206FE1514BD3
:100EB4005B6813F4800FBAD14E4B1B6813F0020F1A
:100EC40003D0E368012B40F05F814A4A136823F0A2
:100ED400F803216943EAC1031360236813F0080F80
:100EE40049D06369002B33D0434B0122C3F8802ED1
:100EF400FFF78EFB05463F4B5B6F13F0020F3AD1B1
:100F0400FFF786FB401B0228F5D903203FE1394B4C
:100F14005B6813F4800F90D1CEE7364A136823F050
:100F2400F803216943EAC1031360D6E7324B002278
:100F34001A60FFF76DFB05462E4B1B6813F0020F7A
:100F4400CBD0FFF765FB401B0228F5D903201EE137
:100F5400294B0022C3F8802EFFF75AFB0546254B88
:100F64005B6F13F0020F06D0FFF752FB401B022801
:100F7400F5D903200BE1236813F0040F76D01D4B41
:100F84001B6C13F0805F33D100230193194B1A6C4F
:100F940042F080521A641B6C03F080530193019B4E
:100FA4000125164B1B6813F4807F29D0A368012BFD
:100FB4003AD0052B3ED00F4B1A6F22F001021A676C
:100FC4001A6F22F004021A67A368002B3CD0FFF7C3
:100FD4001FFB0646074B1B6F13F0020F45D1FFF7AB
:100FE40017FB801B41F288339842F3D90320CEE0EB
:100FF4000025D6E700380240000047420070004058
:101004006B4A136843F480731360FFF701FB0646D1
:10101400674B1B6813F4807FC8D1FFF7F9FA801B74
:101024000228F5D90320B2E0624A136F43F00103AA
:101034001367C9E75F4B1A6F42F004021A671A6F0D
:1010440042F001021A67BFE7FFF7E2FA0646594B7E
:101054001B6F13F0020F08D0FFF7DAFA801B41F27E
:1010640088339842F3D9032091E0EDB9A369002BAA
:1010740000F08C804F4A926802F00C02082A54D087
:10108400022B17D04C4B00221A66FFF7C1FA044614
:10109400484B1B6813F0007F45D0FFF7B9FA001BDB
:1010A4000228F5D9032072E0424A136C23F08053DE
:1010B4001364DBE7404B00221A66FFF7A9FA0546E2
:1010C4003C4B1B6813F0007F06D0FFF7A1FA401BCE
:1010D4000228F5D903205AE0E369226A1343626ABD
:1010E40043EA8213A26A5208013A43EA0243E26ADB
:1010F40043EA0263226B43EA02732E4A53602E4B87
:1011040001221A66FFF784FA04462A4B1B6813F07F
:10111400007F06D1FFF77CFA001B0228F5D90320D3
:1011240035E0002033E0002031E0012B31D0214BA9
:101134005B6803F48001E26991422CD103F03F0221
:10114400216A8A4229D1616A47F6C0721A40B2EB19
:10115400811F24D103F44031A26A5208013AB1EB51
:10116400024F1ED103F07062E16AB2EB016F1AD133
:1011740003F0E043226BB3EB027F16D1002006E0BC
:1011840001207047012002E0012000E0002002B0AD
:1011940070BD0120FBE70120F9E70120F7E70120FA
:1011A400F5E70120F3E70120F1E70120EFE700BFB5
:1011B400007000400038024000004742FEE7FEE7AE
:1011C400FEE7FEE7FEE770477047704708B5FFF794
:1011D40013FA08BD08B50248FFF78AFA08BD00BF34
:1011E40028000020034AD2F8883043F47003C2F880
:1011F4008830704700ED00E0DFF834D0FFF7F2FFED
:101204000C480D490D4A002302E0D458C45004335D
:10121400C4188C42F9D30A4A0A4C002301E0136033
:101224000432A242FBD300F019F8FFF797F9704794
:1012340000000220000000200C000020D815000847
:101244000C0000208C000020FEE702440346934279
:1012540000D1704703F8011BF9E7000070B50D4B8E
:101264000D4D5B1B9C100026A64209D100F096F997
:101274000A4D0B4B5B1B9C100026A64205D170BD8A
:1012840055F8043B98470136EEE755F8043B984778
:101294000136F2E7D0150008D0150008D015000873
:1012A400D41500082DE9F047089D0F4604468C46E6
:1012B400002B48D18A42164661D9B2FA82F34BB167
:1012C400C3F1200201FA03FC20FA02F29E4042EA32
:1012D4000C0C9C404FEA164EB7B2BCFBFEF1220C3C
:1012E4000EFB11CC42EA0C4201FB07F0904209D9F3
:1012F400B21801F1FF3C80F0EE80904240F2EB80A6
:1013040002393244121AA4B2B2FBFEF00EFB1022D0
:1013140044EA024400FB07F7A74209D9341900F153
:10132400FF3280F0DA80A74240F2D780344402389A
:1013340040EA0140E41B00211DB1DC400023C5E963
:101344000043BDE8F0878B4206D90DB1C5E9000121
:1013540000210846BDE8F087B3FA83F1002948D19B
:10136400BB4202D3824200F20781841A67EB030274
:1013740001209446002DE4D0C5E9004CE1E7002AA1
:1013840000F09280B2FA82F3002B40F0A8808A1A0F
:101394004FEA164E1FFA86FC0121200CB2FBFEF721
:1013A4000EFB172240EA02420CFB07F0904207D9D9
:1013B400B21807F1FF3802D2904200F2E2804746A9
:1013C400121AA4B2B2FBFEF00EFB102244EA02444D
:1013D4000CFB00FCA44507D9341900F1FF3202D2FA
:1013E400A44500F2CB801046A4EB0C0440EA07406D
:1013F400A2E7C1F120068B4022FA06FC4CEA030C5A
:1014040007FA01F420FA06F3F7404FEA1C49234394
:1014140000FA01F81FFA8CFEB7FBF9F01C0C09FB6B
:10142400107744EA074400FB0EF7A74202FA01F2E0
:101434000AD91CEB040400F1FF3A80F09B80A74218
:1014440040F2988002386444E41B9FB2B4FBF9F381
:1014540009FB134447EA044403FB0EFEA64509D9DD
:101464001CEB040403F1FF3780F08280A6457FD98A
:10147400023B644443EA0040A4EB0E04A0FB02E7F1
:10148400BC427346B94663D360D05DB1B8EB030286
:1014940064EB090404FA06F622FA01F31E43CC4075
:1014A400C5E9006400214CE76208480842EAC171BA
:1014B4000B0C43EA00438AB242EA0342B3FBF6F15F
:1014C400E407B4463746B6461F23B0FBF6F0D21BFA
:1014D40041EA004161E7614614E7104628E7C3F199
:1014E400200120FA01F29E4027FA01F19F403A437D
:1014F4004FEA164E1FFA86FCB1FBFEF70EFB1710DF
:10150400110C41EA004107FB0CF8884504FA03F486
:101514003AD9711807F1FF3001D288451FD8A1EBE1
:101524000801B1FBFEF808FB0CF70EFB181192B290
:1015340042EA0142BA422FD2B21808F1FF31C6D2B0
:10154400BA42C4D2A8F102013244C0E7F0459CD2A9
:10155400BEEB020367EB0C070138B94695E7A6EB2F
:1015640008084144B81EB1FBFEF808FB0CF7DCE7A1
:101574003B467FE7504667E70846FBE634440238BB
:1015840032E7023F32441BE7A1EB08013846B1FBC6
:10159400FEF808FB0CF7C8E7414698E7F8B500BF2A
:1015A400F8BC08BC9E467047F8B500BFF8BC08BC40
:0415B4009E46704798
:1015B80000000000000000000102030406070809FB
:0815C800E0FCFF7F01000000C0
:0415D0001D020008F0
:0415D400F901000811
:0C15D80001000000100000000024F400DE
:04000005080011FDE1
:00000001FF
