:020000040800F2
:100000000000022025080008E9070008EB070008A7
:10001000ED070008EF070008F107000800000000E6
:10002000000000000000000000000000F3070008CE
:10003000F507000800000000F7070008F9070008AE
:10004000750800087508000875080008750800089C
:10005000750800087508000875080008750800088C
:10006000750800087508000875080008750800087C
:10007000750800087508000875080008750800086C
:1000800001080008750800087508000875080008D0
:10009000750800087508000875080008750800084C
:1000A000750800087508000875080008750800083C
:1000B000750800087508000875080008750800082C
:1000C000750800087508000875080008750800081C
:1000D000750800087508000875080008750800080C
:1000E00075080008750800087508000875080008FC
:1000F00075080008750800087508000875080008EC
:1001000075080008750800087508000875080008DB
:1001100075080008750800087508000875080008CB
:1001200075080008750800087508000875080008BB
:1001300075080008000000000000000075080008B5
:10014000750800087508000875080008750800089B
:10015000750800087508000875080008750800088B
:10016000750800087508000875080008750800087B
:1001700075080008750800087508000800000000F0
:1001800000000000750800080000000000000000EA
:100190007508000800000000000000007508000855
:1001A00000000000000000000000000075080008CA
:1001B000750800087508000875080008750800082B
:0401C00075080008B6
:1001C40010B5054C237833B9044B13B10448AFF38D
:1001D40000800123237010BD0C00002000000000EB
:1001E400C008000808B5034B1BB103490348AFF32B
:1001F400008008BD0000000010000020C0080008B6
:1002040080B586B000F054F800240094134B1A6BA8
:1002140042F002021A631B6B03F002030093009B7B
:1002240001A901944C608C60CC600C610826019695
:10023400012702970A4D284600F0B8F93A4631469C
:10024400284600F0A3FA22463146284600F09EFADA
:100254003146284600F0A0FAD6E700BF0038024035
:100264000004024010B504460E4B1A784FF47A731A
:10027400B3FBF2F30C4A1068B0FBF3F000F094F80F
:1002840068B90F2C01D901200AE0002221464FF061
:10029400FF3000F079F8054B1C60002000E00120DD
:1002A40010BD00BF00000020080000200400002052
:1002B40008B50B4B1A6842F400721A601A6842F4CB
:1002C40080621A601A6842F480721A60032000F097
:1002D40049F80F20FFF7C6FF00F068FA002008BDB8
:1002E400003C0240034A1168034B1B780B44136023
:1002F400704700BF8800002000000020002808DBB1
:100304000901C9B200F1604000F5614080F80013B2
:10031400704700F00F000901C9B2014B195470472E
:1003240014ED00E000B500F00700C0F1070CBCF1CB
:10033400040F28BF4FF0040C031D062B0FD9C31E56
:100344004FF0FF3E0EFA0CF021EA000199400EFA3C
:1003540003FE22EA0E0241EA02005DF804FB0023D8
:10036400EEE70000074AD36823F4E0631B041B0C88
:10037400000200F4E060034343F0BF6343F400333E
:10038400D360704700ED00E010B50446054BD86813
:10039400C0F30220FFF7C6FF01462046FFF7AEFF79
:1003A40010BD00BF00ED00E00138B0F1807F0BD23A
:1003B4004FF0E0235861054AF02182F82310002011
:1003C400986107221A6170470120704700ED00E030
:1003D400F0B583B0044600230193724B1D68724B41
:1003E400A3FB0535AD0A876D3E68C26D08239340B3
:1003F400334210D003681A6812F0040F0BD01A6845
:1004040022F004021A60C26D08239340BB60436D5E
:1004140043F001034365E26D01239340334209D065
:100424002268526912F0800F04D0BB60636D43F000
:1004340002036365E26D04239340334209D02268CA
:10044400126812F0020F04D0BB60636D43F0040322
:100454006365E26D10239340334224D0226812680E
:1004640012F0080F1FD0BB6023681A6812F4802FA3
:100474000DD01B6813F4002F04D1236C9BB12046CC
:10048400984710E0A36C73B1204698470BE01A68B4
:1004940012F4807F03D11A6822F008021A60236CD8
:1004A4000BB120469847E26D20239340334254D049
:1004B4002268126812F0100F4FD0BB6094F83530E8
:1004C400052B0ED023681A6812F4802F33D01B68D2
:1004D40013F4002F2AD1636C002B3ED0204698479A
:1004E4003BE02268136823F0160313602268536903
:1004F40023F080035361236CA3B12268136823F0B3
:1005040008031360E26D3F239340BB60012384F82A
:100514003530002384F83430236D002B3FD020463F
:1005240098473CE0A36C002BE7D1EBE7E36BA3B166
:100534002046984711E01A6812F4807F09D11A689E
:1005440022F010021A60012384F83530002384F865
:100554003430E36B0BB120469847636DFBB1636D98
:1005640013F0010F17D0052384F83530226813687F
:1005740023F001031360019B01330193AB4204D8C0
:1005840023681B6813F0010FF5D1012384F835307B
:10059400002384F83430E36C0BB12046984703B051
:1005A400F0BD00BF08000020B5814E1B00230F2BB7
:1005B40000F2E38070B582B065E085684FEA430ECF
:1005C400032404FA0EF425EA0405CC6804FA0EF4B4
:1005D4002C438460446824EA02044A68C2F300128B
:1005E4009A40224342605CE0DC08083450F824203E
:1005F40003F00705AD004FF00F0E0EFA05FE22EAD8
:100604000E0E0A69AA4042EA0E0240F824205CE079
:10061400062200E0002202FA0EF22A430234574D69
:1006240045F82420564A94686FEA0C0224EA0C0523
:100634004E6816F4801F01D04CEA0405504CA560A6
:10064400E46802EA04054E6816F4001F01D04CEA7F
:1006540004054B4CE560646802EA04054E6816F430
:10066400003F01D04CEA0405454C656024682240F3
:100674004D6815F4803F01D04CEA0402404C2260DE
:1006840001330F2B77D801229A400C6804EA020C3C
:1006940032EA0404F4D14C6804F00304013C012C54
:1006A4008BD94A6802F00302032A09D0C4685D00AA
:1006B4000322AA4024EA02048A68AA402243C260B0
:1006C4004A6802F00302022A8ED004684FEA430EFD
:1006D400032202FA0EF224EA02044A6802F0030238
:1006E40002FA0EF2224302604A6812F4403FC7D075
:1006F40000220192234A546C44F480445464526CA2
:1007040002F480420192019A9C08A51C1B4A52F8EB
:10071400255003F0030E4FEA8E0E0F2202FA0EF25A
:1007240025EA0205184A90423FF474AF02F580624C
:10073400904216D002F58062904214D002F5806295
:10074400904212D002F58062904210D002F580628D
:1007540090420ED002F5806290423FF459AF0722D6
:1007640059E7012257E7022255E7032253E70422FF
:1007740051E705224FE702B070BD704700380140D1
:10078400003C014000380240000002400AB181618F
:100794007047090481617047436901EA030221EA51
:1007A400030141EA024181617047000082B00021E7
:1007B40000910B4B5A6C42F480425A645A6C02F416
:1007C40080420092009A01911A6C42F080521A649D
:1007D4001B6C03F080530193019B02B0704700BF70
:1007E40000380240FEE7FEE7FEE7FEE7FEE770475B
:1007F4007047704708B5FFF775FD08BD08B5024896
:10080400FFF7E6FD08BD00BF28000020034AD2F828
:10081400883043F47003C2F88830704700ED00E07C
:10082400DFF834D0FFF7F2FF0C480D490D4A0023DE
:1008340002E0D458C4500433C4188C42F9D30A4A91
:100844000A4C002301E013600432A242FBD300F0FF
:1008540011F8FFF7D5FC70470000022000000020CB
:100864000C000020E00800080C0000208C00002090
:10087400FEE7000070B50D4B0D4D5B1B9C10002670
:10088400A64209D100F01AF80A4D0B4B5B1B9C10D1
:100894000026A64205D170BD55F8043B98470136A1
:1008A400EEE755F8043B98470136F2E7D80800080C
:1008B400D8080008D8080008DC080008F8B500BF0C
:1008C400F8BC08BC9E467047F8B500BFF8BC08BC2D
:0408D4009E46704785
:0408D800E90100082A
:0408DC00C50100084A
:0C08E00001000000100000000024F400E3
:0400000508000825C2
:00000001FF
