:020000040800F2
:100000000000022001060008C5050008C705000819
:10001000C9050008CB050008CD0500080000000058
:10002000000000000000000000000000CF050008F4
:10003000D105000800000000D3050008D505000820
:100040005106000851060008510600085106000834
:100050005106000851060008510600085106000824
:100060005106000851060008510600085106000814
:100070005106000851060008510600085106000804
:10008000DD05000851060008510600085106000869
:1000900051060008510600085106000851060008E4
:1000A00051060008510600085106000851060008D4
:1000B00051060008510600085106000851060008C4
:1000C00051060008510600085106000851060008B4
:1000D00051060008510600085106000851060008A4
:1000E0005106000851060008510600085106000894
:1000F0005106000851060008510600085106000884
:100100005106000851060008510600085106000873
:100110005106000851060008510600085106000863
:100120005106000851060008510600085106000853
:100130005106000800000000000000005106000801
:100140005106000851060008510600085106000833
:100150005106000851060008510600085106000823
:100160005106000851060008510600085106000813
:100170005106000851060008510600080000000062
:100180000000000051060008000000000000000010
:1001900051060008000000000000000051060008A1
:1001A00000000000000000000000000051060008F0
:1001B00051060008510600085106000851060008C3
:0401C00051060008DC
:1001C40010B5054C237833B9044B13B10448AFF38D
:1001D40000800123237010BD0C00002000000000EB
:1001E4009C06000808B5034B1BB103490348AFF351
:1001F400008008BD00000000100000209C060008DC
:1002040082B000230193094B1A6B42F002021A6375
:100214001B6B03F002030193019B054B45F25552FE
:100224001A60FF225A6102B0704700BF00380240D2
:100234000004024008B500F029F8FFF7E1FFFEE7EB
:1002440010B504460E4B1A784FF47A73B3FBF2F3ED
:100254000C4A1068B0FBF3F000F094F868B90F2C66
:1002640001D901200AE0002221464FF0FF3000F0BE
:1002740079F8054B1C60002000E0012010BD00BF90
:1002840000000020080000200400002008B50B4BEB
:100294001A6842F400721A601A6842F480621A60A2
:1002A4001A6842F480721A60032000F049F80F20A3
:1002B400FFF7C6FF00F068F9002008BD003C0240CB
:1002C400034A1168034B1B780B441360704700BF4B
:1002D4008800002000000020002808DB0901C9B2C2
:1002E40000F1604000F5614080F80013704700F0B1
:1002F4000F000901C9B2014B1954704714ED00E015
:1003040000B500F00700C0F1070CBCF1040F28BFD2
:100314004FF0040C031D062B0FD9C31E4FF0FF3EF4
:100324000EFA0CF021EA000199400EFA03FE22EACB
:100334000E0241EA02005DF804FB0023EEE7000030
:10034400074AD36823F4E0631B041B0C000200F487
:10035400E060034343F0BF6343F40033D36070476A
:1003640000ED00E010B50446054BD868C0F3022048
:10037400FFF7C6FF01462046FFF7AEFF10BD00BFE2
:1003840000ED00E00138B0F1807F0BD24FF0E023A4
:100394005861054AF02182F8231000209861072251
:1003A4001A6170470120704700ED00E0F0B583B09A
:1003B400044600230193724B1D68724BA3FB053561
:1003C400AD0A876D3E68C26D08239340334210D056
:1003D40003681A6812F0040F0BD01A6822F00402A2
:1003E4001A60C26D08239340BB60436D43F0010360
:1003F4004365E26D01239340334209D02268526978
:1004040012F0800F04D0BB60636D43F00203636598
:10041400E26D04239340334209D02268126812F03B
:10042400020F04D0BB60636D43F004036365E26DA7
:1004340010239340334224D02268126812F0080F2C
:100444001FD0BB6023681A6812F4802F0DD01B687C
:1004540013F4002F04D1236C9BB12046984710E07D
:10046400A36C73B1204698470BE01A6812F4807F9E
:1004740003D11A6822F008021A60236C0BB12046DB
:100484009847E26D20239340334254D02268126887
:1004940012F0100F4FD0BB6094F83530052B0ED0FE
:1004A40023681A6812F4802F33D01B6813F4002FCA
:1004B4002AD1636C002B3ED0204698473BE022684B
:1004C400136823F0160313602268536923F0800332
:1004D4005361236CA3B12268136823F008031360EB
:1004E400E26D3F239340BB60012384F83530002341
:1004F40084F83430236D002B3FD0204698473CE0ED
:10050400A36C002BE7D1EBE7E36BA3B1204698473C
:1005140011E01A6812F4807F09D11A6822F01002DF
:100524001A60012384F83530002384F83430E36BF7
:100534000BB120469847636DFBB1636D13F0010F57
:1005440017D0052384F835302268136823F001039B
:100554001360019B01330193AB4204D823681B68E9
:1005640013F0010FF5D1012384F83530002384F80A
:100574003430E36C0BB12046984703B0F0BD00BFA4
:1005840008000020B5814E1B82B0002100910B4B66
:100594005A6C42F480425A645A6C02F480420092CB
:1005A400009A01911A6C42F080521A641B6C03F099
:1005B40080530193019B02B0704700BF0038024092
:1005C400FEE7FEE7FEE7FEE7FEE770477047704789
:1005D40008B5FFF775FE08BD08B50248FFF7E6FE4B
:1005E40008BD00BF28000020034AD2F8883043F435
:1005F4007003C2F88830704700ED00E0DFF834D0B3
:10060400FFF7F2FF0C480D490D4A002302E0D458CD
:10061400C4500433C4188C42F9D30A4A0A4C002348
:1006240001E013600432A242FBD300F011F8FFF79B
:1006340001FE704700000220000000200C00002092
:10064400BC0600080C0000208C000020FEE700001F
:1006540070B50D4B0D4D5B1B9C100026A64209D1B5
:1006640000F01AF80A4D0B4B5B1B9C100026A642A7
:1006740005D170BD55F8043B98470136EEE755F8AF
:10068400043B98470136F2E7B4060008B4060008B4
:10069400B4060008B8060008F8B500BFF8BC08BCEA
:1006A4009E467047F8B500BFF8BC08BC9E4670472C
:0406B400E901000850
:0406B800C501000870
:0C06BC0001000000100000000024F40009
:0400000508000601E8
:00000001FF
